{
  "_format": "hh-sol-artifact-1",
  "contractName": "MockVRFCoordinatorV2",
  "sourceName": "contracts/MockVRFCoordinatorV2.sol",
  "abi": [
    {
      "anonymous": false,
      "inputs": [],
      "name": "Called",
      "type": "event"
    },
    {
      "inputs": [
        {
          "internalType": "uint64",
          "name": "subId",
          "type": "uint64"
        },
        {
          "internalType": "address",
          "name": "consumer",
          "type": "address"
        }
      ],
      "name": "addConsumer",
      "outputs": [],
      "stateMutability": "nonpayable",
      "type": "function"
    },
    {
      "inputs": [
        {
          "internalType": "bytes32",
          "name": "keyHash",
          "type": "bytes32"
        },
        {
          "internalType": "uint64",
          "name": "s_subscriptionId",
          "type": "uint64"
        },
        {
          "internalType": "uint16",
          "name": "requestConfirmations",
          "type": "uint16"
        },
        {
          "internalType": "uint32",
          "name": "callbackGasLimit",
          "type": "uint32"
        },
        {
          "internalType": "uint32",
          "name": "amount",
          "type": "uint32"
        }
      ],
      "name": "requestRandomWords",
      "outputs": [
        {
          "internalType": "uint256",
          "name": "requestId",
          "type": "uint256"
        }
      ],
      "stateMutability": "nonpayable",
      "type": "function"
    }
  ],
  "bytecode": "0x608060405234801561001057600080fd5b50610336806100206000396000f3fe608060405234801561001057600080fd5b50600436106100365760003560e01c80635d3b1d301461003b5780637341c10c1461006b575b600080fd5b610055600480360381019061005091906101b3565b610087565b6040516100629190610247565b60405180910390f35b610085600480360381019061008091906102c0565b6100be565b005b60007f81fab7a4a0aa961db47eefc81f143a5220e8c8495260dd65b1356f1d19d3c7b860405160405180910390a195945050505050565b5050565b600080fd5b6000819050919050565b6100da816100c7565b81146100e557600080fd5b50565b6000813590506100f7816100d1565b92915050565b600067ffffffffffffffff82169050919050565b61011a816100fd565b811461012557600080fd5b50565b60008135905061013781610111565b92915050565b600061ffff82169050919050565b6101548161013d565b811461015f57600080fd5b50565b6000813590506101718161014b565b92915050565b600063ffffffff82169050919050565b61019081610177565b811461019b57600080fd5b50565b6000813590506101ad81610187565b92915050565b600080600080600060a086880312156101cf576101ce6100c2565b5b60006101dd888289016100e8565b95505060206101ee88828901610128565b94505060406101ff88828901610162565b93505060606102108882890161019e565b92505060806102218882890161019e565b9150509295509295909350565b6000819050919050565b6102418161022e565b82525050565b600060208201905061025c6000830184610238565b92915050565b600073ffffffffffffffffffffffffffffffffffffffff82169050919050565b600061028d82610262565b9050919050565b61029d81610282565b81146102a857600080fd5b50565b6000813590506102ba81610294565b92915050565b600080604083850312156102d7576102d66100c2565b5b60006102e585828601610128565b92505060206102f6858286016102ab565b915050925092905056fea2646970667358221220bc5a59c1b967f0fe6f7c56f889631de4d48a558446448f449541d18f4920f6b364736f6c634300080f0033",
  "linkReferences": {},
  "deployedLinkReferences": {}
}