{
  "_format": "hh-sol-artifact-1",
  "contractName": "NFTDoor",
  "sourceName": "contracts/NFTDoor.sol",
  "abi": [
    {
      "inputs": [
        {
          "internalType": "address",
          "name": "vrfCoordinator",
          "type": "address"
        },
        {
          "internalType": "uint64",
          "name": "subscriptionId",
          "type": "uint64"
        },
        {
          "internalType": "bytes32",
          "name": "_keyHash",
          "type": "bytes32"
        },
        {
          "internalType": "uint32",
          "name": "_callbackGasLimit",
          "type": "uint32"
        },
        {
          "internalType": "uint16",
          "name": "_requestConfirmations",
          "type": "uint16"
        },
        {
          "internalType": "string",
          "name": "name",
          "type": "string"
        },
        {
          "internalType": "string",
          "name": "symbol",
          "type": "string"
        },
        {
          "internalType": "string",
          "name": "baseTokenURI",
          "type": "string"
        },
        {
          "internalType": "uint256",
          "name": "_mintLimit",
          "type": "uint256"
        },
        {
          "internalType": "uint256",
          "name": "_mintPrice",
          "type": "uint256"
        }
      ],
      "stateMutability": "nonpayable",
      "type": "constructor"
    },
    {
      "inputs": [
        {
          "internalType": "address",
          "name": "have",
          "type": "address"
        },
        {
          "internalType": "address",
          "name": "want",
          "type": "address"
        }
      ],
      "name": "OnlyCoordinatorCanFulfill",
      "type": "error"
    },
    {
      "anonymous": false,
      "inputs": [
        {
          "indexed": true,
          "internalType": "address",
          "name": "owner",
          "type": "address"
        },
        {
          "indexed": true,
          "internalType": "address",
          "name": "approved",
          "type": "address"
        },
        {
          "indexed": true,
          "internalType": "uint256",
          "name": "tokenId",
          "type": "uint256"
        }
      ],
      "name": "Approval",
      "type": "event"
    },
    {
      "anonymous": false,
      "inputs": [
        {
          "indexed": true,
          "internalType": "address",
          "name": "owner",
          "type": "address"
        },
        {
          "indexed": true,
          "internalType": "address",
          "name": "operator",
          "type": "address"
        },
        {
          "indexed": false,
          "internalType": "bool",
          "name": "approved",
          "type": "bool"
        }
      ],
      "name": "ApprovalForAll",
      "type": "event"
    },
    {
      "anonymous": false,
      "inputs": [
        {
          "indexed": false,
          "internalType": "string",
          "name": "baseTokenURI",
          "type": "string"
        }
      ],
      "name": "BaseTokenURISet",
      "type": "event"
    },
    {
      "anonymous": false,
      "inputs": [
        {
          "indexed": true,
          "internalType": "uint256",
          "name": "tokenId",
          "type": "uint256"
        },
        {
          "indexed": false,
          "internalType": "uint256",
          "name": "randomNumber",
          "type": "uint256"
        }
      ],
      "name": "Minted",
      "type": "event"
    },
    {
      "anonymous": false,
      "inputs": [
        {
          "indexed": true,
          "internalType": "address",
          "name": "previousOwner",
          "type": "address"
        },
        {
          "indexed": true,
          "internalType": "address",
          "name": "newOwner",
          "type": "address"
        }
      ],
      "name": "OwnershipTransferred",
      "type": "event"
    },
    {
      "anonymous": false,
      "inputs": [
        {
          "indexed": true,
          "internalType": "uint256",
          "name": "tokenId",
          "type": "uint256"
        }
      ],
      "name": "Requested",
      "type": "event"
    },
    {
      "anonymous": false,
      "inputs": [
        {
          "indexed": true,
          "internalType": "address",
          "name": "from",
          "type": "address"
        },
        {
          "indexed": true,
          "internalType": "address",
          "name": "to",
          "type": "address"
        },
        {
          "indexed": true,
          "internalType": "uint256",
          "name": "tokenId",
          "type": "uint256"
        }
      ],
      "name": "Transfer",
      "type": "event"
    },
    {
      "inputs": [],
      "name": "COORDINATOR",
      "outputs": [
        {
          "internalType": "contract VRFCoordinatorV2Interface",
          "name": "",
          "type": "address"
        }
      ],
      "stateMutability": "view",
      "type": "function"
    },
    {
      "inputs": [
        {
          "internalType": "address",
          "name": "to",
          "type": "address"
        },
        {
          "internalType": "uint256",
          "name": "tokenId",
          "type": "uint256"
        }
      ],
      "name": "approve",
      "outputs": [],
      "stateMutability": "nonpayable",
      "type": "function"
    },
    {
      "inputs": [
        {
          "internalType": "address",
          "name": "owner",
          "type": "address"
        }
      ],
      "name": "balanceOf",
      "outputs": [
        {
          "internalType": "uint256",
          "name": "",
          "type": "uint256"
        }
      ],
      "stateMutability": "view",
      "type": "function"
    },
    {
      "inputs": [],
      "name": "callbackGasLimit",
      "outputs": [
        {
          "internalType": "uint32",
          "name": "",
          "type": "uint32"
        }
      ],
      "stateMutability": "view",
      "type": "function"
    },
    {
      "inputs": [
        {
          "internalType": "uint256",
          "name": "tokenId",
          "type": "uint256"
        }
      ],
      "name": "getApproved",
      "outputs": [
        {
          "internalType": "address",
          "name": "",
          "type": "address"
        }
      ],
      "stateMutability": "view",
      "type": "function"
    },
    {
      "inputs": [
        {
          "internalType": "address",
          "name": "owner",
          "type": "address"
        },
        {
          "internalType": "address",
          "name": "operator",
          "type": "address"
        }
      ],
      "name": "isApprovedForAll",
      "outputs": [
        {
          "internalType": "bool",
          "name": "",
          "type": "bool"
        }
      ],
      "stateMutability": "view",
      "type": "function"
    },
    {
      "inputs": [],
      "name": "keyHash",
      "outputs": [
        {
          "internalType": "bytes32",
          "name": "",
          "type": "bytes32"
        }
      ],
      "stateMutability": "view",
      "type": "function"
    },
    {
      "inputs": [],
      "name": "mintLimit",
      "outputs": [
        {
          "internalType": "uint256",
          "name": "",
          "type": "uint256"
        }
      ],
      "stateMutability": "view",
      "type": "function"
    },
    {
      "inputs": [],
      "name": "mintPrice",
      "outputs": [
        {
          "internalType": "uint256",
          "name": "",
          "type": "uint256"
        }
      ],
      "stateMutability": "view",
      "type": "function"
    },
    {
      "inputs": [],
      "name": "name",
      "outputs": [
        {
          "internalType": "string",
          "name": "",
          "type": "string"
        }
      ],
      "stateMutability": "view",
      "type": "function"
    },
    {
      "inputs": [],
      "name": "owner",
      "outputs": [
        {
          "internalType": "address",
          "name": "",
          "type": "address"
        }
      ],
      "stateMutability": "view",
      "type": "function"
    },
    {
      "inputs": [
        {
          "internalType": "uint256",
          "name": "tokenId",
          "type": "uint256"
        }
      ],
      "name": "ownerOf",
      "outputs": [
        {
          "internalType": "address",
          "name": "",
          "type": "address"
        }
      ],
      "stateMutability": "view",
      "type": "function"
    },
    {
      "inputs": [
        {
          "internalType": "uint256",
          "name": "requestId",
          "type": "uint256"
        },
        {
          "internalType": "uint256[]",
          "name": "randomWords",
          "type": "uint256[]"
        }
      ],
      "name": "rawFulfillRandomWords",
      "outputs": [],
      "stateMutability": "nonpayable",
      "type": "function"
    },
    {
      "inputs": [],
      "name": "renounceOwnership",
      "outputs": [],
      "stateMutability": "nonpayable",
      "type": "function"
    },
    {
      "inputs": [],
      "name": "requestConfirmations",
      "outputs": [
        {
          "internalType": "uint16",
          "name": "",
          "type": "uint16"
        }
      ],
      "stateMutability": "view",
      "type": "function"
    },
    {
      "inputs": [
        {
          "internalType": "uint256",
          "name": "",
          "type": "uint256"
        },
        {
          "internalType": "uint256",
          "name": "",
          "type": "uint256"
        }
      ],
      "name": "requestIdToMintInfos",
      "outputs": [
        {
          "internalType": "address",
          "name": "to",
          "type": "address"
        },
        {
          "internalType": "uint256",
          "name": "tokenId",
          "type": "uint256"
        }
      ],
      "stateMutability": "view",
      "type": "function"
    },
    {
      "inputs": [
        {
          "internalType": "address",
          "name": "to",
          "type": "address"
        },
        {
          "internalType": "uint32",
          "name": "amount",
          "type": "uint32"
        }
      ],
      "name": "requestRandomWords",
      "outputs": [],
      "stateMutability": "payable",
      "type": "function"
    },
    {
      "inputs": [],
      "name": "s_subscriptionId",
      "outputs": [
        {
          "internalType": "uint64",
          "name": "",
          "type": "uint64"
        }
      ],
      "stateMutability": "view",
      "type": "function"
    },
    {
      "inputs": [
        {
          "internalType": "address",
          "name": "from",
          "type": "address"
        },
        {
          "internalType": "address",
          "name": "to",
          "type": "address"
        },
        {
          "internalType": "uint256",
          "name": "tokenId",
          "type": "uint256"
        }
      ],
      "name": "safeTransferFrom",
      "outputs": [],
      "stateMutability": "nonpayable",
      "type": "function"
    },
    {
      "inputs": [
        {
          "internalType": "address",
          "name": "from",
          "type": "address"
        },
        {
          "internalType": "address",
          "name": "to",
          "type": "address"
        },
        {
          "internalType": "uint256",
          "name": "tokenId",
          "type": "uint256"
        },
        {
          "internalType": "bytes",
          "name": "data",
          "type": "bytes"
        }
      ],
      "name": "safeTransferFrom",
      "outputs": [],
      "stateMutability": "nonpayable",
      "type": "function"
    },
    {
      "inputs": [
        {
          "internalType": "address",
          "name": "operator",
          "type": "address"
        },
        {
          "internalType": "bool",
          "name": "approved",
          "type": "bool"
        }
      ],
      "name": "setApprovalForAll",
      "outputs": [],
      "stateMutability": "nonpayable",
      "type": "function"
    },
    {
      "inputs": [
        {
          "internalType": "string",
          "name": "baseTokenURI",
          "type": "string"
        }
      ],
      "name": "setBaseTokenURI",
      "outputs": [],
      "stateMutability": "payable",
      "type": "function"
    },
    {
      "inputs": [
        {
          "internalType": "bytes4",
          "name": "interfaceId",
          "type": "bytes4"
        }
      ],
      "name": "supportsInterface",
      "outputs": [
        {
          "internalType": "bool",
          "name": "",
          "type": "bool"
        }
      ],
      "stateMutability": "view",
      "type": "function"
    },
    {
      "inputs": [],
      "name": "symbol",
      "outputs": [
        {
          "internalType": "string",
          "name": "",
          "type": "string"
        }
      ],
      "stateMutability": "view",
      "type": "function"
    },
    {
      "inputs": [
        {
          "internalType": "uint256",
          "name": "index",
          "type": "uint256"
        }
      ],
      "name": "tokenByIndex",
      "outputs": [
        {
          "internalType": "uint256",
          "name": "",
          "type": "uint256"
        }
      ],
      "stateMutability": "view",
      "type": "function"
    },
    {
      "inputs": [
        {
          "internalType": "uint256",
          "name": "",
          "type": "uint256"
        }
      ],
      "name": "tokenIdToRandomNumber",
      "outputs": [
        {
          "internalType": "uint256",
          "name": "",
          "type": "uint256"
        }
      ],
      "stateMutability": "view",
      "type": "function"
    },
    {
      "inputs": [
        {
          "internalType": "address",
          "name": "owner",
          "type": "address"
        },
        {
          "internalType": "uint256",
          "name": "index",
          "type": "uint256"
        }
      ],
      "name": "tokenOfOwnerByIndex",
      "outputs": [
        {
          "internalType": "uint256",
          "name": "",
          "type": "uint256"
        }
      ],
      "stateMutability": "view",
      "type": "function"
    },
    {
      "inputs": [
        {
          "internalType": "uint256",
          "name": "tokenId",
          "type": "uint256"
        }
      ],
      "name": "tokenURI",
      "outputs": [
        {
          "internalType": "string",
          "name": "",
          "type": "string"
        }
      ],
      "stateMutability": "view",
      "type": "function"
    },
    {
      "inputs": [],
      "name": "totalSupply",
      "outputs": [
        {
          "internalType": "uint256",
          "name": "",
          "type": "uint256"
        }
      ],
      "stateMutability": "view",
      "type": "function"
    },
    {
      "inputs": [
        {
          "internalType": "address",
          "name": "from",
          "type": "address"
        },
        {
          "internalType": "address",
          "name": "to",
          "type": "address"
        },
        {
          "internalType": "uint256",
          "name": "tokenId",
          "type": "uint256"
        }
      ],
      "name": "transferFrom",
      "outputs": [],
      "stateMutability": "nonpayable",
      "type": "function"
    },
    {
      "inputs": [
        {
          "internalType": "address",
          "name": "newOwner",
          "type": "address"
        }
      ],
      "name": "transferOwnership",
      "outputs": [],
      "stateMutability": "nonpayable",
      "type": "function"
    },
    {
      "inputs": [
        {
          "internalType": "address",
          "name": "_recepient",
          "type": "address"
        }
      ],
      "name": "withdraw",
      "outputs": [],
      "stateMutability": "payable",
      "type": "function"
    }
  ],
  "bytecode": "0x60a06040523480156200001157600080fd5b5060405162004ef138038062004ef18339818101604052810190620000379190620006b4565b84848b6200005a6200004e6200019360201b60201c565b6200019b60201b60201c565b8073ffffffffffffffffffffffffffffffffffffffff1660808173ffffffffffffffffffffffffffffffffffffffff1681525050508160019081620000a0919062000a48565b508060029081620000b2919062000a48565b50505089600d60006101000a81548173ffffffffffffffffffffffffffffffffffffffff021916908373ffffffffffffffffffffffffffffffffffffffff16021790555088600d60146101000a81548167ffffffffffffffff021916908367ffffffffffffffff16021790555087600e8190555086600f60006101000a81548163ffffffff021916908363ffffffff16021790555085600f60046101000a81548161ffff021916908361ffff160217905550816010819055508060118190555062000183836200025f60201b60201c565b5050505050505050505062000c17565b600033905090565b60008060009054906101000a900473ffffffffffffffffffffffffffffffffffffffff169050816000806101000a81548173ffffffffffffffffffffffffffffffffffffffff021916908373ffffffffffffffffffffffffffffffffffffffff1602179055508173ffffffffffffffffffffffffffffffffffffffff168173ffffffffffffffffffffffffffffffffffffffff167f8be0079c531659141344cd1fd0a4f28419497f9722a3daafe3b4186f6b6457e060405160405180910390a35050565b6200026f620002bd60201b60201c565b806012908162000280919062000a48565b507f2e9b34e5ec7377754a85ec13c1e9a442a00db0c46dbdefbb143dd0371fd20c1c81604051620002b2919062000b81565b60405180910390a150565b620002cd6200019360201b60201c565b73ffffffffffffffffffffffffffffffffffffffff16620002f36200034e60201b60201c565b73ffffffffffffffffffffffffffffffffffffffff16146200034c576040517f08c379a0000000000000000000000000000000000000000000000000000000008152600401620003439062000bf5565b60405180910390fd5b565b60008060009054906101000a900473ffffffffffffffffffffffffffffffffffffffff16905090565b6000604051905090565b600080fd5b600080fd5b600073ffffffffffffffffffffffffffffffffffffffff82169050919050565b6000620003b8826200038b565b9050919050565b620003ca81620003ab565b8114620003d657600080fd5b50565b600081519050620003ea81620003bf565b92915050565b600067ffffffffffffffff82169050919050565b6200040f81620003f0565b81146200041b57600080fd5b50565b6000815190506200042f8162000404565b92915050565b6000819050919050565b6200044a8162000435565b81146200045657600080fd5b50565b6000815190506200046a816200043f565b92915050565b600063ffffffff82169050919050565b6200048b8162000470565b81146200049757600080fd5b50565b600081519050620004ab8162000480565b92915050565b600061ffff82169050919050565b620004ca81620004b1565b8114620004d657600080fd5b50565b600081519050620004ea81620004bf565b92915050565b600080fd5b600080fd5b6000601f19601f8301169050919050565b7f4e487b7100000000000000000000000000000000000000000000000000000000600052604160045260246000fd5b6200054582620004fa565b810181811067ffffffffffffffff821117156200056757620005666200050b565b5b80604052505050565b60006200057c62000377565b90506200058a82826200053a565b919050565b600067ffffffffffffffff821115620005ad57620005ac6200050b565b5b620005b882620004fa565b9050602081019050919050565b60005b83811015620005e5578082015181840152602081019050620005c8565b83811115620005f5576000848401525b50505050565b6000620006126200060c846200058f565b62000570565b905082815260208101848484011115620006315762000630620004f5565b5b6200063e848285620005c5565b509392505050565b600082601f8301126200065e576200065d620004f0565b5b815162000670848260208601620005fb565b91505092915050565b6000819050919050565b6200068e8162000679565b81146200069a57600080fd5b50565b600081519050620006ae8162000683565b92915050565b6000806000806000806000806000806101408b8d031215620006db57620006da62000381565b5b6000620006eb8d828e01620003d9565b9a50506020620006fe8d828e016200041e565b9950506040620007118d828e0162000459565b9850506060620007248d828e016200049a565b9750506080620007378d828e01620004d9565b96505060a08b015167ffffffffffffffff8111156200075b576200075a62000386565b5b620007698d828e0162000646565b95505060c08b015167ffffffffffffffff8111156200078d576200078c62000386565b5b6200079b8d828e0162000646565b94505060e08b015167ffffffffffffffff811115620007bf57620007be62000386565b5b620007cd8d828e0162000646565b935050610100620007e18d828e016200069d565b925050610120620007f58d828e016200069d565b9150509295989b9194979a5092959850565b600081519050919050565b7f4e487b7100000000000000000000000000000000000000000000000000000000600052602260045260246000fd5b600060028204905060018216806200085a57607f821691505b60208210810362000870576200086f62000812565b5b50919050565b60008190508160005260206000209050919050565b60006020601f8301049050919050565b600082821b905092915050565b600060088302620008da7fffffffffffffffffffffffffffffffffffffffffffffffffffffffffffffffff826200089b565b620008e686836200089b565b95508019841693508086168417925050509392505050565b6000819050919050565b600062000929620009236200091d8462000679565b620008fe565b62000679565b9050919050565b6000819050919050565b620009458362000908565b6200095d620009548262000930565b848454620008a8565b825550505050565b600090565b6200097462000965565b620009818184846200093a565b505050565b5b81811015620009a9576200099d6000826200096a565b60018101905062000987565b5050565b601f821115620009f857620009c28162000876565b620009cd846200088b565b81016020851015620009dd578190505b620009f5620009ec856200088b565b83018262000986565b50505b505050565b600082821c905092915050565b600062000a1d60001984600802620009fd565b1980831691505092915050565b600062000a38838362000a0a565b9150826002028217905092915050565b62000a538262000807565b67ffffffffffffffff81111562000a6f5762000a6e6200050b565b5b62000a7b825462000841565b62000a88828285620009ad565b600060209050601f83116001811462000ac0576000841562000aab578287015190505b62000ab7858262000a2a565b86555062000b27565b601f19841662000ad08662000876565b60005b8281101562000afa5784890151825560018201915060208501945060208101905062000ad3565b8683101562000b1a578489015162000b16601f89168262000a0a565b8355505b6001600288020188555050505b505050505050565b600082825260208201905092915050565b600062000b4d8262000807565b62000b59818562000b2f565b935062000b6b818560208601620005c5565b62000b7681620004fa565b840191505092915050565b6000602082019050818103600083015262000b9d818462000b40565b905092915050565b7f4f776e61626c653a2063616c6c6572206973206e6f7420746865206f776e6572600082015250565b600062000bdd60208362000b2f565b915062000bea8262000ba5565b602082019050919050565b6000602082019050818103600083015262000c108162000bce565b9050919050565b6080516142b762000c3a60003960008181610a260152610a7a01526142b76000f3fe6080604052600436106101e35760003560e01c80636817c76c11610102578063a22cb46511610095578063c87b56dd11610064578063c87b56dd146106ef578063df97f69c1461072c578063e985e9c514610748578063f2fde38b14610785576101e3565b8063a22cb46514610634578063b0fb162f1461065d578063b88d4fde14610688578063beb52e03146106b1576101e3565b80638da5cb5b116100d15780638da5cb5b1461057657806395d89b41146105a1578063996517cf146105cc5780639c1cd795146105f7576101e3565b80636817c76c146104cc57806370a08231146104f7578063715018a6146105345780638ac000211461054b576101e3565b80632f745c591161017a5780634f6ccce7116101495780634f6ccce71461040b57806351cff8d91461044857806361728f39146104645780636352211e1461048f576101e3565b80632f745c591461035e57806330176e131461039b5780633b2bcbf1146103b757806342842e0e146103e2576101e3565b806318160ddd116101b657806318160ddd146102b65780631fe543e3146102e157806323b872dd1461030a57806324f7469714610333576101e3565b806301ffc9a7146101e857806306fdde0314610225578063081812fc14610250578063095ea7b31461028d575b600080fd5b3480156101f457600080fd5b5061020f600480360381019061020a919061297c565b6107ae565b60405161021c91906129c4565b60405180910390f35b34801561023157600080fd5b5061023a610828565b6040516102479190612a78565b60405180910390f35b34801561025c57600080fd5b5061027760048036038101906102729190612ad0565b6108ba565b6040516102849190612b3e565b60405180910390f35b34801561029957600080fd5b506102b460048036038101906102af9190612b85565b610900565b005b3480156102c257600080fd5b506102cb610a17565b6040516102d89190612bd4565b60405180910390f35b3480156102ed57600080fd5b5061030860048036038101906103039190612d37565b610a24565b005b34801561031657600080fd5b50610331600480360381019061032c9190612d93565b610ae4565b005b34801561033f57600080fd5b50610348610b44565b6040516103559190612e05565b60405180910390f35b34801561036a57600080fd5b5061038560048036038101906103809190612b85565b610b5a565b6040516103929190612bd4565b60405180910390f35b6103b560048036038101906103b09190612ed5565b610bff565b005b3480156103c357600080fd5b506103cc610c51565b6040516103d99190612f7d565b60405180910390f35b3480156103ee57600080fd5b5061040960048036038101906104049190612d93565b610c77565b005b34801561041757600080fd5b50610432600480360381019061042d9190612ad0565b610c97565b60405161043f9190612bd4565b60405180910390f35b610462600480360381019061045d9190612f98565b610d08565b005b34801561047057600080fd5b50610479610d5a565b6040516104869190612fde565b60405180910390f35b34801561049b57600080fd5b506104b660048036038101906104b19190612ad0565b610d60565b6040516104c39190612b3e565b60405180910390f35b3480156104d857600080fd5b506104e1610e11565b6040516104ee9190612bd4565b60405180910390f35b34801561050357600080fd5b5061051e60048036038101906105199190612f98565b610e17565b60405161052b9190612bd4565b60405180910390f35b34801561054057600080fd5b50610549610ece565b005b34801561055757600080fd5b50610560610ee2565b60405161056d919061301c565b60405180910390f35b34801561058257600080fd5b5061058b610efc565b6040516105989190612b3e565b60405180910390f35b3480156105ad57600080fd5b506105b6610f25565b6040516105c39190612a78565b60405180910390f35b3480156105d857600080fd5b506105e1610fb7565b6040516105ee9190612bd4565b60405180910390f35b34801561060357600080fd5b5061061e60048036038101906106199190612ad0565b610fbd565b60405161062b9190612bd4565b60405180910390f35b34801561064057600080fd5b5061065b60048036038101906106569190613063565b610fd5565b005b34801561066957600080fd5b50610672610feb565b60405161067f91906130c0565b60405180910390f35b34801561069457600080fd5b506106af60048036038101906106aa919061317c565b610fff565b005b3480156106bd57600080fd5b506106d860048036038101906106d391906131ff565b611061565b6040516106e692919061323f565b60405180910390f35b3480156106fb57600080fd5b5061071660048036038101906107119190612ad0565b6110c2565b6040516107239190612a78565b60405180910390f35b61074660048036038101906107419190613294565b61112a565b005b34801561075457600080fd5b5061076f600480360381019061076a91906132d4565b6113e9565b60405161077c91906129c4565b60405180910390f35b34801561079157600080fd5b506107ac60048036038101906107a79190612f98565b61147d565b005b60007f780e9d63000000000000000000000000000000000000000000000000000000007bffffffffffffffffffffffffffffffffffffffffffffffffffffffff1916827bffffffffffffffffffffffffffffffffffffffffffffffffffffffff19161480610821575061082082611500565b5b9050919050565b60606001805461083790613343565b80601f016020809104026020016040519081016040528092919081815260200182805461086390613343565b80156108b05780601f10610885576101008083540402835291602001916108b0565b820191906000526020600020905b81548152906001019060200180831161089357829003601f168201915b5050505050905090565b60006108c5826115e2565b6005600083815260200190815260200160002060009054906101000a900473ffffffffffffffffffffffffffffffffffffffff169050919050565b600061090b82610d60565b90508073ffffffffffffffffffffffffffffffffffffffff168373ffffffffffffffffffffffffffffffffffffffff160361097b576040517f08c379a0000000000000000000000000000000000000000000000000000000008152600401610972906133e6565b60405180910390fd5b8073ffffffffffffffffffffffffffffffffffffffff1661099a61162d565b73ffffffffffffffffffffffffffffffffffffffff1614806109c957506109c8816109c361162d565b6113e9565b5b610a08576040517f08c379a00000000000000000000000000000000000000000000000000000000081526004016109ff90613478565b60405180910390fd5b610a128383611635565b505050565b6000600980549050905090565b7f000000000000000000000000000000000000000000000000000000000000000073ffffffffffffffffffffffffffffffffffffffff163373ffffffffffffffffffffffffffffffffffffffff1614610ad657337f00000000000000000000000000000000000000000000000000000000000000006040517f1cf993f4000000000000000000000000000000000000000000000000000000008152600401610acd929190613498565b60405180910390fd5b610ae082826116ee565b5050565b610af5610aef61162d565b8261189e565b610b34576040517f08c379a0000000000000000000000000000000000000000000000000000000008152600401610b2b90613533565b60405180910390fd5b610b3f838383611933565b505050565b600f60009054906101000a900463ffffffff1681565b6000610b6583610e17565b8210610ba6576040517f08c379a0000000000000000000000000000000000000000000000000000000008152600401610b9d906135c5565b60405180910390fd5b600760008473ffffffffffffffffffffffffffffffffffffffff1673ffffffffffffffffffffffffffffffffffffffff168152602001908152602001600020600083815260200190815260200160002054905092915050565b610c07611b99565b8060129081610c169190613787565b507f2e9b34e5ec7377754a85ec13c1e9a442a00db0c46dbdefbb143dd0371fd20c1c81604051610c469190612a78565b60405180910390a150565b600d60009054906101000a900473ffffffffffffffffffffffffffffffffffffffff1681565b610c9283838360405180602001604052806000815250610fff565b505050565b6000610ca1610a17565b8210610ce2576040517f08c379a0000000000000000000000000000000000000000000000000000000008152600401610cd9906138cb565b60405180910390fd5b60098281548110610cf657610cf56138eb565b5b90600052602060002001549050919050565b610d10611b99565b8073ffffffffffffffffffffffffffffffffffffffff166108fc479081150290604051600060405180830381858888f19350505050158015610d56573d6000803e3d6000fd5b5050565b600e5481565b6000806003600084815260200190815260200160002060009054906101000a900473ffffffffffffffffffffffffffffffffffffffff169050600073ffffffffffffffffffffffffffffffffffffffff168173ffffffffffffffffffffffffffffffffffffffff1603610e08576040517f08c379a0000000000000000000000000000000000000000000000000000000008152600401610dff90613966565b60405180910390fd5b80915050919050565b60115481565b60008073ffffffffffffffffffffffffffffffffffffffff168273ffffffffffffffffffffffffffffffffffffffff1603610e87576040517f08c379a0000000000000000000000000000000000000000000000000000000008152600401610e7e906139f8565b60405180910390fd5b600460008373ffffffffffffffffffffffffffffffffffffffff1673ffffffffffffffffffffffffffffffffffffffff168152602001908152602001600020549050919050565b610ed6611b99565b610ee06000611c17565b565b600d60149054906101000a900467ffffffffffffffff1681565b60008060009054906101000a900473ffffffffffffffffffffffffffffffffffffffff16905090565b606060028054610f3490613343565b80601f0160208091040260200160405190810160405280929190818152602001828054610f6090613343565b8015610fad5780601f10610f8257610100808354040283529160200191610fad565b820191906000526020600020905b815481529060010190602001808311610f9057829003601f168201915b5050505050905090565b60105481565b600c6020528060005260406000206000915090505481565b610fe7610fe061162d565b8383611cdb565b5050565b600f60049054906101000a900461ffff1681565b61101061100a61162d565b8361189e565b61104f576040517f08c379a000000000000000000000000000000000000000000000000000000000815260040161104690613533565b60405180910390fd5b61105b84848484611e47565b50505050565b600b602052816000526040600020818154811061107d57600080fd5b9060005260206000209060020201600091509150508060000160009054906101000a900473ffffffffffffffffffffffffffffffffffffffff16908060010154905082565b60606110cd826115e2565b60006110d7611ea3565b905060008151116110f75760405180602001604052806000815250611122565b8061110184611f35565b604051602001611112929190613a54565b6040516020818303038152906040525b915050919050565b6000611134610a17565b90506010548263ffffffff168261114b9190613aa7565b111561118c576040517f08c379a000000000000000000000000000000000000000000000000000000000815260040161118390613b49565b60405180910390fd5b60115434146111d0576040517f08c379a00000000000000000000000000000000000000000000000000000000081526004016111c790613bb5565b60405180910390fd5b6000600d60009054906101000a900473ffffffffffffffffffffffffffffffffffffffff1673ffffffffffffffffffffffffffffffffffffffff16635d3b1d30600e54600d60149054906101000a900467ffffffffffffffff16600f60049054906101000a900461ffff16600f60009054906101000a900463ffffffff16886040518663ffffffff1660e01b815260040161126f959493929190613bd5565b6020604051808303816000875af115801561128e573d6000803e3d6000fd5b505050506040513d601f19601f820116820180604052508101906112b29190613c3d565b905060005b8363ffffffff168110156113e2576000600182856112d59190613aa7565b6112df9190613aa7565b9050600060405180604001604052808873ffffffffffffffffffffffffffffffffffffffff168152602001838152509050600b600085815260200190815260200160002081908060018154018082558091505060019003906000526020600020906002020160009091909190915060008201518160000160006101000a81548173ffffffffffffffffffffffffffffffffffffffff021916908373ffffffffffffffffffffffffffffffffffffffff160217905550602082015181600101555050817f54593fbf3d0e13af724316e44a7387ee756ab753993496c7009658e83217002c60405160405180910390a2505080806113da90613c6a565b9150506112b7565b5050505050565b6000600660008473ffffffffffffffffffffffffffffffffffffffff1673ffffffffffffffffffffffffffffffffffffffff16815260200190815260200160002060008373ffffffffffffffffffffffffffffffffffffffff1673ffffffffffffffffffffffffffffffffffffffff16815260200190815260200160002060009054906101000a900460ff16905092915050565b611485611b99565b600073ffffffffffffffffffffffffffffffffffffffff168173ffffffffffffffffffffffffffffffffffffffff16036114f4576040517f08c379a00000000000000000000000000000000000000000000000000000000081526004016114eb90613d24565b60405180910390fd5b6114fd81611c17565b50565b60007f80ac58cd000000000000000000000000000000000000000000000000000000007bffffffffffffffffffffffffffffffffffffffffffffffffffffffff1916827bffffffffffffffffffffffffffffffffffffffffffffffffffffffff191614806115cb57507f5b5e139f000000000000000000000000000000000000000000000000000000007bffffffffffffffffffffffffffffffffffffffffffffffffffffffff1916827bffffffffffffffffffffffffffffffffffffffffffffffffffffffff1916145b806115db57506115da82612095565b5b9050919050565b6115eb816120ff565b61162a576040517f08c379a000000000000000000000000000000000000000000000000000000000815260040161162190613966565b60405180910390fd5b50565b600033905090565b816005600083815260200190815260200160002060006101000a81548173ffffffffffffffffffffffffffffffffffffffff021916908373ffffffffffffffffffffffffffffffffffffffff160217905550808273ffffffffffffffffffffffffffffffffffffffff166116a883610d60565b73ffffffffffffffffffffffffffffffffffffffff167f8c5be1e5ebec7d5bd14f71427d1e84f3dd0314c0f7b2291e5b200ac8c7c3b92560405160405180910390a45050565b6000600b6000848152602001908152602001600020805480602002602001604051908101604052809291908181526020016000905b828210156117b557838290600052602060002090600202016040518060400160405290816000820160009054906101000a900473ffffffffffffffffffffffffffffffffffffffff1673ffffffffffffffffffffffffffffffffffffffff1673ffffffffffffffffffffffffffffffffffffffff16815260200160018201548152505081526020019060010190611723565b50505050905060005b81518110156118985760008282815181106117dc576117db6138eb565b5b602002602001015190506117f88160000151826020015161216b565b83828151811061180b5761180a6138eb565b5b6020026020010151600c6000836020015181526020019081526020016000208190555080602001517f8a9dcf4e150b1153011b29fec302d5be0c13e84fa8f56ab78587f778a32a90dd858481518110611867576118666138eb565b5b602002602001015160405161187c9190612bd4565b60405180910390a250808061189090613c6a565b9150506117be565b50505050565b6000806118aa83610d60565b90508073ffffffffffffffffffffffffffffffffffffffff168473ffffffffffffffffffffffffffffffffffffffff1614806118ec57506118eb81856113e9565b5b8061192a57508373ffffffffffffffffffffffffffffffffffffffff16611912846108ba565b73ffffffffffffffffffffffffffffffffffffffff16145b91505092915050565b8273ffffffffffffffffffffffffffffffffffffffff1661195382610d60565b73ffffffffffffffffffffffffffffffffffffffff16146119a9576040517f08c379a00000000000000000000000000000000000000000000000000000000081526004016119a090613db6565b60405180910390fd5b600073ffffffffffffffffffffffffffffffffffffffff168273ffffffffffffffffffffffffffffffffffffffff1603611a18576040517f08c379a0000000000000000000000000000000000000000000000000000000008152600401611a0f90613e48565b60405180910390fd5b611a23838383612344565b611a2e600082611635565b6001600460008573ffffffffffffffffffffffffffffffffffffffff1673ffffffffffffffffffffffffffffffffffffffff1681526020019081526020016000206000828254611a7e9190613e68565b925050819055506001600460008473ffffffffffffffffffffffffffffffffffffffff1673ffffffffffffffffffffffffffffffffffffffff1681526020019081526020016000206000828254611ad59190613aa7565b92505081905550816003600083815260200190815260200160002060006101000a81548173ffffffffffffffffffffffffffffffffffffffff021916908373ffffffffffffffffffffffffffffffffffffffff160217905550808273ffffffffffffffffffffffffffffffffffffffff168473ffffffffffffffffffffffffffffffffffffffff167fddf252ad1be2c89b69c2b068fc378daa952ba7f163c4a11628f55a4df523b3ef60405160405180910390a4611b94838383612456565b505050565b611ba161162d565b73ffffffffffffffffffffffffffffffffffffffff16611bbf610efc565b73ffffffffffffffffffffffffffffffffffffffff1614611c15576040517f08c379a0000000000000000000000000000000000000000000000000000000008152600401611c0c90613ee8565b60405180910390fd5b565b60008060009054906101000a900473ffffffffffffffffffffffffffffffffffffffff169050816000806101000a81548173ffffffffffffffffffffffffffffffffffffffff021916908373ffffffffffffffffffffffffffffffffffffffff1602179055508173ffffffffffffffffffffffffffffffffffffffff168173ffffffffffffffffffffffffffffffffffffffff167f8be0079c531659141344cd1fd0a4f28419497f9722a3daafe3b4186f6b6457e060405160405180910390a35050565b8173ffffffffffffffffffffffffffffffffffffffff168373ffffffffffffffffffffffffffffffffffffffff1603611d49576040517f08c379a0000000000000000000000000000000000000000000000000000000008152600401611d4090613f54565b60405180910390fd5b80600660008573ffffffffffffffffffffffffffffffffffffffff1673ffffffffffffffffffffffffffffffffffffffff16815260200190815260200160002060008473ffffffffffffffffffffffffffffffffffffffff1673ffffffffffffffffffffffffffffffffffffffff16815260200190815260200160002060006101000a81548160ff0219169083151502179055508173ffffffffffffffffffffffffffffffffffffffff168373ffffffffffffffffffffffffffffffffffffffff167f17307eab39ab6107e8899845ad3d59bd9653f200f220920489ca2b5937696c3183604051611e3a91906129c4565b60405180910390a3505050565b611e52848484611933565b611e5e8484848461245b565b611e9d576040517f08c379a0000000000000000000000000000000000000000000000000000000008152600401611e9490613fe6565b60405180910390fd5b50505050565b606060128054611eb290613343565b80601f0160208091040260200160405190810160405280929190818152602001828054611ede90613343565b8015611f2b5780601f10611f0057610100808354040283529160200191611f2b565b820191906000526020600020905b815481529060010190602001808311611f0e57829003601f168201915b5050505050905090565b606060008203611f7c576040518060400160405280600181526020017f30000000000000000000000000000000000000000000000000000000000000008152509050612090565b600082905060005b60008214611fae578080611f9790613c6a565b915050600a82611fa79190614035565b9150611f84565b60008167ffffffffffffffff811115611fca57611fc9612bf4565b5b6040519080825280601f01601f191660200182016040528015611ffc5781602001600182028036833780820191505090505b5090505b60008514612089576001826120159190613e68565b9150600a856120249190614066565b60306120309190613aa7565b60f81b818381518110612046576120456138eb565b5b60200101907effffffffffffffffffffffffffffffffffffffffffffffffffffffffffffff1916908160001a905350600a856120829190614035565b9450612000565b8093505050505b919050565b60007f01ffc9a7000000000000000000000000000000000000000000000000000000007bffffffffffffffffffffffffffffffffffffffffffffffffffffffff1916827bffffffffffffffffffffffffffffffffffffffffffffffffffffffff1916149050919050565b60008073ffffffffffffffffffffffffffffffffffffffff166003600084815260200190815260200160002060009054906101000a900473ffffffffffffffffffffffffffffffffffffffff1673ffffffffffffffffffffffffffffffffffffffff1614159050919050565b600073ffffffffffffffffffffffffffffffffffffffff168273ffffffffffffffffffffffffffffffffffffffff16036121da576040517f08c379a00000000000000000000000000000000000000000000000000000000081526004016121d1906140e3565b60405180910390fd5b6121e3816120ff565b15612223576040517f08c379a000000000000000000000000000000000000000000000000000000000815260040161221a9061414f565b60405180910390fd5b61222f60008383612344565b6001600460008473ffffffffffffffffffffffffffffffffffffffff1673ffffffffffffffffffffffffffffffffffffffff168152602001908152602001600020600082825461227f9190613aa7565b92505081905550816003600083815260200190815260200160002060006101000a81548173ffffffffffffffffffffffffffffffffffffffff021916908373ffffffffffffffffffffffffffffffffffffffff160217905550808273ffffffffffffffffffffffffffffffffffffffff16600073ffffffffffffffffffffffffffffffffffffffff167fddf252ad1be2c89b69c2b068fc378daa952ba7f163c4a11628f55a4df523b3ef60405160405180910390a461234060008383612456565b5050565b61234f8383836125e2565b600073ffffffffffffffffffffffffffffffffffffffff168373ffffffffffffffffffffffffffffffffffffffff16036123915761238c816125e7565b6123d0565b8173ffffffffffffffffffffffffffffffffffffffff168373ffffffffffffffffffffffffffffffffffffffff16146123cf576123ce8382612630565b5b5b600073ffffffffffffffffffffffffffffffffffffffff168273ffffffffffffffffffffffffffffffffffffffff16036124125761240d8161279d565b612451565b8273ffffffffffffffffffffffffffffffffffffffff168273ffffffffffffffffffffffffffffffffffffffff16146124505761244f828261286e565b5b5b505050565b505050565b600061247c8473ffffffffffffffffffffffffffffffffffffffff166128ed565b156125d5578373ffffffffffffffffffffffffffffffffffffffff1663150b7a026124a561162d565b8786866040518563ffffffff1660e01b81526004016124c794939291906141c4565b6020604051808303816000875af192505050801561250357506040513d601f19601f820116820180604052508101906125009190614225565b60015b612585573d8060008114612533576040519150601f19603f3d011682016040523d82523d6000602084013e612538565b606091505b50600081510361257d576040517f08c379a000000000000000000000000000000000000000000000000000000000815260040161257490613fe6565b60405180910390fd5b805181602001fd5b63150b7a0260e01b7bffffffffffffffffffffffffffffffffffffffffffffffffffffffff1916817bffffffffffffffffffffffffffffffffffffffffffffffffffffffff1916149150506125da565b600190505b949350505050565b505050565b600980549050600a600083815260200190815260200160002081905550600981908060018154018082558091505060019003906000526020600020016000909190919091505550565b6000600161263d84610e17565b6126479190613e68565b905060006008600084815260200190815260200160002054905081811461272c576000600760008673ffffffffffffffffffffffffffffffffffffffff1673ffffffffffffffffffffffffffffffffffffffff168152602001908152602001600020600084815260200190815260200160002054905080600760008773ffffffffffffffffffffffffffffffffffffffff1673ffffffffffffffffffffffffffffffffffffffff168152602001908152602001600020600084815260200190815260200160002081905550816008600083815260200190815260200160002081905550505b6008600084815260200190815260200160002060009055600760008573ffffffffffffffffffffffffffffffffffffffff1673ffffffffffffffffffffffffffffffffffffffff16815260200190815260200160002060008381526020019081526020016000206000905550505050565b600060016009805490506127b19190613e68565b90506000600a60008481526020019081526020016000205490506000600983815481106127e1576127e06138eb565b5b906000526020600020015490508060098381548110612803576128026138eb565b5b906000526020600020018190555081600a600083815260200190815260200160002081905550600a600085815260200190815260200160002060009055600980548061285257612851614252565b5b6001900381819060005260206000200160009055905550505050565b600061287983610e17565b905081600760008573ffffffffffffffffffffffffffffffffffffffff1673ffffffffffffffffffffffffffffffffffffffff168152602001908152602001600020600083815260200190815260200160002081905550806008600084815260200190815260200160002081905550505050565b6000808273ffffffffffffffffffffffffffffffffffffffff163b119050919050565b6000604051905090565b600080fd5b600080fd5b60007fffffffff0000000000000000000000000000000000000000000000000000000082169050919050565b61295981612924565b811461296457600080fd5b50565b60008135905061297681612950565b92915050565b6000602082840312156129925761299161291a565b5b60006129a084828501612967565b91505092915050565b60008115159050919050565b6129be816129a9565b82525050565b60006020820190506129d960008301846129b5565b92915050565b600081519050919050565b600082825260208201905092915050565b60005b83811015612a195780820151818401526020810190506129fe565b83811115612a28576000848401525b50505050565b6000601f19601f8301169050919050565b6000612a4a826129df565b612a5481856129ea565b9350612a648185602086016129fb565b612a6d81612a2e565b840191505092915050565b60006020820190508181036000830152612a928184612a3f565b905092915050565b6000819050919050565b612aad81612a9a565b8114612ab857600080fd5b50565b600081359050612aca81612aa4565b92915050565b600060208284031215612ae657612ae561291a565b5b6000612af484828501612abb565b91505092915050565b600073ffffffffffffffffffffffffffffffffffffffff82169050919050565b6000612b2882612afd565b9050919050565b612b3881612b1d565b82525050565b6000602082019050612b536000830184612b2f565b92915050565b612b6281612b1d565b8114612b6d57600080fd5b50565b600081359050612b7f81612b59565b92915050565b60008060408385031215612b9c57612b9b61291a565b5b6000612baa85828601612b70565b9250506020612bbb85828601612abb565b9150509250929050565b612bce81612a9a565b82525050565b6000602082019050612be96000830184612bc5565b92915050565b600080fd5b7f4e487b7100000000000000000000000000000000000000000000000000000000600052604160045260246000fd5b612c2c82612a2e565b810181811067ffffffffffffffff82111715612c4b57612c4a612bf4565b5b80604052505050565b6000612c5e612910565b9050612c6a8282612c23565b919050565b600067ffffffffffffffff821115612c8a57612c89612bf4565b5b602082029050602081019050919050565b600080fd5b6000612cb3612cae84612c6f565b612c54565b90508083825260208201905060208402830185811115612cd657612cd5612c9b565b5b835b81811015612cff5780612ceb8882612abb565b845260208401935050602081019050612cd8565b5050509392505050565b600082601f830112612d1e57612d1d612bef565b5b8135612d2e848260208601612ca0565b91505092915050565b60008060408385031215612d4e57612d4d61291a565b5b6000612d5c85828601612abb565b925050602083013567ffffffffffffffff811115612d7d57612d7c61291f565b5b612d8985828601612d09565b9150509250929050565b600080600060608486031215612dac57612dab61291a565b5b6000612dba86828701612b70565b9350506020612dcb86828701612b70565b9250506040612ddc86828701612abb565b9150509250925092565b600063ffffffff82169050919050565b612dff81612de6565b82525050565b6000602082019050612e1a6000830184612df6565b92915050565b600080fd5b600067ffffffffffffffff821115612e4057612e3f612bf4565b5b612e4982612a2e565b9050602081019050919050565b82818337600083830152505050565b6000612e78612e7384612e25565b612c54565b905082815260208101848484011115612e9457612e93612e20565b5b612e9f848285612e56565b509392505050565b600082601f830112612ebc57612ebb612bef565b5b8135612ecc848260208601612e65565b91505092915050565b600060208284031215612eeb57612eea61291a565b5b600082013567ffffffffffffffff811115612f0957612f0861291f565b5b612f1584828501612ea7565b91505092915050565b6000819050919050565b6000612f43612f3e612f3984612afd565b612f1e565b612afd565b9050919050565b6000612f5582612f28565b9050919050565b6000612f6782612f4a565b9050919050565b612f7781612f5c565b82525050565b6000602082019050612f926000830184612f6e565b92915050565b600060208284031215612fae57612fad61291a565b5b6000612fbc84828501612b70565b91505092915050565b6000819050919050565b612fd881612fc5565b82525050565b6000602082019050612ff36000830184612fcf565b92915050565b600067ffffffffffffffff82169050919050565b61301681612ff9565b82525050565b6000602082019050613031600083018461300d565b92915050565b613040816129a9565b811461304b57600080fd5b50565b60008135905061305d81613037565b92915050565b6000806040838503121561307a5761307961291a565b5b600061308885828601612b70565b92505060206130998582860161304e565b9150509250929050565b600061ffff82169050919050565b6130ba816130a3565b82525050565b60006020820190506130d560008301846130b1565b92915050565b600067ffffffffffffffff8211156130f6576130f5612bf4565b5b6130ff82612a2e565b9050602081019050919050565b600061311f61311a846130db565b612c54565b90508281526020810184848401111561313b5761313a612e20565b5b613146848285612e56565b509392505050565b600082601f83011261316357613162612bef565b5b813561317384826020860161310c565b91505092915050565b600080600080608085870312156131965761319561291a565b5b60006131a487828801612b70565b94505060206131b587828801612b70565b93505060406131c687828801612abb565b925050606085013567ffffffffffffffff8111156131e7576131e661291f565b5b6131f38782880161314e565b91505092959194509250565b600080604083850312156132165761321561291a565b5b600061322485828601612abb565b925050602061323585828601612abb565b9150509250929050565b60006040820190506132546000830185612b2f565b6132616020830184612bc5565b9392505050565b61327181612de6565b811461327c57600080fd5b50565b60008135905061328e81613268565b92915050565b600080604083850312156132ab576132aa61291a565b5b60006132b985828601612b70565b92505060206132ca8582860161327f565b9150509250929050565b600080604083850312156132eb576132ea61291a565b5b60006132f985828601612b70565b925050602061330a85828601612b70565b9150509250929050565b7f4e487b7100000000000000000000000000000000000000000000000000000000600052602260045260246000fd5b6000600282049050600182168061335b57607f821691505b60208210810361336e5761336d613314565b5b50919050565b7f4552433732313a20617070726f76616c20746f2063757272656e74206f776e6560008201527f7200000000000000000000000000000000000000000000000000000000000000602082015250565b60006133d06021836129ea565b91506133db82613374565b604082019050919050565b600060208201905081810360008301526133ff816133c3565b9050919050565b7f4552433732313a20617070726f76652063616c6c6572206973206e6f7420746f60008201527f6b656e206f776e6572206e6f7220617070726f76656420666f7220616c6c0000602082015250565b6000613462603e836129ea565b915061346d82613406565b604082019050919050565b6000602082019050818103600083015261349181613455565b9050919050565b60006040820190506134ad6000830185612b2f565b6134ba6020830184612b2f565b9392505050565b7f4552433732313a2063616c6c6572206973206e6f7420746f6b656e206f776e6560008201527f72206e6f7220617070726f766564000000000000000000000000000000000000602082015250565b600061351d602e836129ea565b9150613528826134c1565b604082019050919050565b6000602082019050818103600083015261354c81613510565b9050919050565b7f455243373231456e756d657261626c653a206f776e657220696e646578206f7560008201527f74206f6620626f756e6473000000000000000000000000000000000000000000602082015250565b60006135af602b836129ea565b91506135ba82613553565b604082019050919050565b600060208201905081810360008301526135de816135a2565b9050919050565b60008190508160005260206000209050919050565b60006020601f8301049050919050565b600082821b905092915050565b6000600883026136477fffffffffffffffffffffffffffffffffffffffffffffffffffffffffffffffff8261360a565b613651868361360a565b95508019841693508086168417925050509392505050565b600061368461367f61367a84612a9a565b612f1e565b612a9a565b9050919050565b6000819050919050565b61369e83613669565b6136b26136aa8261368b565b848454613617565b825550505050565b600090565b6136c76136ba565b6136d2818484613695565b505050565b5b818110156136f6576136eb6000826136bf565b6001810190506136d8565b5050565b601f82111561373b5761370c816135e5565b613715846135fa565b81016020851015613724578190505b613738613730856135fa565b8301826136d7565b50505b505050565b600082821c905092915050565b600061375e60001984600802613740565b1980831691505092915050565b6000613777838361374d565b9150826002028217905092915050565b613790826129df565b67ffffffffffffffff8111156137a9576137a8612bf4565b5b6137b38254613343565b6137be8282856136fa565b600060209050601f8311600181146137f157600084156137df578287015190505b6137e9858261376b565b865550613851565b601f1984166137ff866135e5565b60005b8281101561382757848901518255600182019150602085019450602081019050613802565b868310156138445784890151613840601f89168261374d565b8355505b6001600288020188555050505b505050505050565b7f455243373231456e756d657261626c653a20676c6f62616c20696e646578206f60008201527f7574206f6620626f756e64730000000000000000000000000000000000000000602082015250565b60006138b5602c836129ea565b91506138c082613859565b604082019050919050565b600060208201905081810360008301526138e4816138a8565b9050919050565b7f4e487b7100000000000000000000000000000000000000000000000000000000600052603260045260246000fd5b7f4552433732313a20696e76616c696420746f6b656e2049440000000000000000600082015250565b60006139506018836129ea565b915061395b8261391a565b602082019050919050565b6000602082019050818103600083015261397f81613943565b9050919050565b7f4552433732313a2061646472657373207a65726f206973206e6f74206120766160008201527f6c6964206f776e65720000000000000000000000000000000000000000000000602082015250565b60006139e26029836129ea565b91506139ed82613986565b604082019050919050565b60006020820190508181036000830152613a11816139d5565b9050919050565b600081905092915050565b6000613a2e826129df565b613a388185613a18565b9350613a488185602086016129fb565b80840191505092915050565b6000613a608285613a23565b9150613a6c8284613a23565b91508190509392505050565b7f4e487b7100000000000000000000000000000000000000000000000000000000600052601160045260246000fd5b6000613ab282612a9a565b9150613abd83612a9a565b9250827fffffffffffffffffffffffffffffffffffffffffffffffffffffffffffffffff03821115613af257613af1613a78565b5b828201905092915050565b7f4e4654446f6f723a206d696e74206c696d697420657863656564656400000000600082015250565b6000613b33601c836129ea565b9150613b3e82613afd565b602082019050919050565b60006020820190508181036000830152613b6281613b26565b9050919050565b7f4e4654446f6f723a206d73672076616c756520696e76616c6964000000000000600082015250565b6000613b9f601a836129ea565b9150613baa82613b69565b602082019050919050565b60006020820190508181036000830152613bce81613b92565b9050919050565b600060a082019050613bea6000830188612fcf565b613bf7602083018761300d565b613c0460408301866130b1565b613c116060830185612df6565b613c1e6080830184612df6565b9695505050505050565b600081519050613c3781612aa4565b92915050565b600060208284031215613c5357613c5261291a565b5b6000613c6184828501613c28565b91505092915050565b6000613c7582612a9a565b91507fffffffffffffffffffffffffffffffffffffffffffffffffffffffffffffffff8203613ca757613ca6613a78565b5b600182019050919050565b7f4f776e61626c653a206e6577206f776e657220697320746865207a65726f206160008201527f6464726573730000000000000000000000000000000000000000000000000000602082015250565b6000613d0e6026836129ea565b9150613d1982613cb2565b604082019050919050565b60006020820190508181036000830152613d3d81613d01565b9050919050565b7f4552433732313a207472616e736665722066726f6d20696e636f72726563742060008201527f6f776e6572000000000000000000000000000000000000000000000000000000602082015250565b6000613da06025836129ea565b9150613dab82613d44565b604082019050919050565b60006020820190508181036000830152613dcf81613d93565b9050919050565b7f4552433732313a207472616e7366657220746f20746865207a65726f2061646460008201527f7265737300000000000000000000000000000000000000000000000000000000602082015250565b6000613e326024836129ea565b9150613e3d82613dd6565b604082019050919050565b60006020820190508181036000830152613e6181613e25565b9050919050565b6000613e7382612a9a565b9150613e7e83612a9a565b925082821015613e9157613e90613a78565b5b828203905092915050565b7f4f776e61626c653a2063616c6c6572206973206e6f7420746865206f776e6572600082015250565b6000613ed26020836129ea565b9150613edd82613e9c565b602082019050919050565b60006020820190508181036000830152613f0181613ec5565b9050919050565b7f4552433732313a20617070726f766520746f2063616c6c657200000000000000600082015250565b6000613f3e6019836129ea565b9150613f4982613f08565b602082019050919050565b60006020820190508181036000830152613f6d81613f31565b9050919050565b7f4552433732313a207472616e7366657220746f206e6f6e20455243373231526560008201527f63656976657220696d706c656d656e7465720000000000000000000000000000602082015250565b6000613fd06032836129ea565b9150613fdb82613f74565b604082019050919050565b60006020820190508181036000830152613fff81613fc3565b9050919050565b7f4e487b7100000000000000000000000000000000000000000000000000000000600052601260045260246000fd5b600061404082612a9a565b915061404b83612a9a565b92508261405b5761405a614006565b5b828204905092915050565b600061407182612a9a565b915061407c83612a9a565b92508261408c5761408b614006565b5b828206905092915050565b7f4552433732313a206d696e7420746f20746865207a65726f2061646472657373600082015250565b60006140cd6020836129ea565b91506140d882614097565b602082019050919050565b600060208201905081810360008301526140fc816140c0565b9050919050565b7f4552433732313a20746f6b656e20616c7265616479206d696e74656400000000600082015250565b6000614139601c836129ea565b915061414482614103565b602082019050919050565b600060208201905081810360008301526141688161412c565b9050919050565b600081519050919050565b600082825260208201905092915050565b60006141968261416f565b6141a0818561417a565b93506141b08185602086016129fb565b6141b981612a2e565b840191505092915050565b60006080820190506141d96000830187612b2f565b6141e66020830186612b2f565b6141f36040830185612bc5565b8181036060830152614205818461418b565b905095945050505050565b60008151905061421f81612950565b92915050565b60006020828403121561423b5761423a61291a565b5b600061424984828501614210565b91505092915050565b7f4e487b7100000000000000000000000000000000000000000000000000000000600052603160045260246000fdfea2646970667358221220d2c2e0d10070576933e6312d160303099f01e93d9b8aee80d2aba6b63de52cc264736f6c634300080f0033",
  "linkReferences": {},
  "deployedLinkReferences": {}
}