{
  "_format": "hh-sol-artifact-1",
  "contractName": "NFTDoor",
  "sourceName": "contracts/NFTDoor.sol",
  "abi": [
    {
      "inputs": [
        {
          "internalType": "address",
          "name": "vrfCoordinator",
          "type": "address"
        },
        {
          "internalType": "uint64",
          "name": "subscriptionId",
          "type": "uint64"
        },
        {
          "internalType": "bytes32",
          "name": "_keyHash",
          "type": "bytes32"
        },
        {
          "internalType": "uint32",
          "name": "_callbackGasLimit",
          "type": "uint32"
        },
        {
          "internalType": "uint16",
          "name": "_requestConfirmations",
          "type": "uint16"
        },
        {
          "internalType": "string",
          "name": "name",
          "type": "string"
        },
        {
          "internalType": "string",
          "name": "symbol",
          "type": "string"
        },
        {
          "internalType": "string",
          "name": "baseTokenURI",
          "type": "string"
        },
        {
          "internalType": "uint256",
          "name": "_mintLimit",
          "type": "uint256"
        },
        {
          "internalType": "uint256",
          "name": "_mintPrice",
          "type": "uint256"
        }
      ],
      "stateMutability": "nonpayable",
      "type": "constructor"
    },
    {
      "inputs": [
        {
          "internalType": "address",
          "name": "have",
          "type": "address"
        },
        {
          "internalType": "address",
          "name": "want",
          "type": "address"
        }
      ],
      "name": "OnlyCoordinatorCanFulfill",
      "type": "error"
    },
    {
      "anonymous": false,
      "inputs": [
        {
          "indexed": true,
          "internalType": "address",
          "name": "owner",
          "type": "address"
        },
        {
          "indexed": true,
          "internalType": "address",
          "name": "approved",
          "type": "address"
        },
        {
          "indexed": true,
          "internalType": "uint256",
          "name": "tokenId",
          "type": "uint256"
        }
      ],
      "name": "Approval",
      "type": "event"
    },
    {
      "anonymous": false,
      "inputs": [
        {
          "indexed": true,
          "internalType": "address",
          "name": "owner",
          "type": "address"
        },
        {
          "indexed": true,
          "internalType": "address",
          "name": "operator",
          "type": "address"
        },
        {
          "indexed": false,
          "internalType": "bool",
          "name": "approved",
          "type": "bool"
        }
      ],
      "name": "ApprovalForAll",
      "type": "event"
    },
    {
      "anonymous": false,
      "inputs": [
        {
          "indexed": false,
          "internalType": "string",
          "name": "baseTokenURI",
          "type": "string"
        }
      ],
      "name": "BaseTokenURISet",
      "type": "event"
    },
    {
      "anonymous": false,
      "inputs": [
        {
          "indexed": true,
          "internalType": "uint256",
          "name": "tokenId",
          "type": "uint256"
        },
        {
          "indexed": false,
          "internalType": "uint256",
          "name": "randomNumber",
          "type": "uint256"
        }
      ],
      "name": "Minted",
      "type": "event"
    },
    {
      "anonymous": false,
      "inputs": [
        {
          "indexed": true,
          "internalType": "address",
          "name": "previousOwner",
          "type": "address"
        },
        {
          "indexed": true,
          "internalType": "address",
          "name": "newOwner",
          "type": "address"
        }
      ],
      "name": "OwnershipTransferred",
      "type": "event"
    },
    {
      "anonymous": false,
      "inputs": [
        {
          "indexed": true,
          "internalType": "uint256",
          "name": "tokenId",
          "type": "uint256"
        }
      ],
      "name": "Requested",
      "type": "event"
    },
    {
      "anonymous": false,
      "inputs": [
        {
          "indexed": true,
          "internalType": "address",
          "name": "from",
          "type": "address"
        },
        {
          "indexed": true,
          "internalType": "address",
          "name": "to",
          "type": "address"
        },
        {
          "indexed": true,
          "internalType": "uint256",
          "name": "tokenId",
          "type": "uint256"
        }
      ],
      "name": "Transfer",
      "type": "event"
    },
    {
      "inputs": [],
      "name": "COORDINATOR",
      "outputs": [
        {
          "internalType": "contract VRFCoordinatorV2Interface",
          "name": "",
          "type": "address"
        }
      ],
      "stateMutability": "view",
      "type": "function"
    },
    {
      "inputs": [
        {
          "internalType": "address",
          "name": "to",
          "type": "address"
        },
        {
          "internalType": "uint256",
          "name": "tokenId",
          "type": "uint256"
        }
      ],
      "name": "approve",
      "outputs": [],
      "stateMutability": "nonpayable",
      "type": "function"
    },
    {
      "inputs": [
        {
          "internalType": "address",
          "name": "owner",
          "type": "address"
        }
      ],
      "name": "balanceOf",
      "outputs": [
        {
          "internalType": "uint256",
          "name": "",
          "type": "uint256"
        }
      ],
      "stateMutability": "view",
      "type": "function"
    },
    {
      "inputs": [],
      "name": "callbackGasLimit",
      "outputs": [
        {
          "internalType": "uint32",
          "name": "",
          "type": "uint32"
        }
      ],
      "stateMutability": "view",
      "type": "function"
    },
    {
      "inputs": [
        {
          "internalType": "uint256",
          "name": "tokenId",
          "type": "uint256"
        }
      ],
      "name": "getApproved",
      "outputs": [
        {
          "internalType": "address",
          "name": "",
          "type": "address"
        }
      ],
      "stateMutability": "view",
      "type": "function"
    },
    {
      "inputs": [
        {
          "internalType": "address",
          "name": "owner",
          "type": "address"
        },
        {
          "internalType": "address",
          "name": "operator",
          "type": "address"
        }
      ],
      "name": "isApprovedForAll",
      "outputs": [
        {
          "internalType": "bool",
          "name": "",
          "type": "bool"
        }
      ],
      "stateMutability": "view",
      "type": "function"
    },
    {
      "inputs": [],
      "name": "keyHash",
      "outputs": [
        {
          "internalType": "bytes32",
          "name": "",
          "type": "bytes32"
        }
      ],
      "stateMutability": "view",
      "type": "function"
    },
    {
      "inputs": [],
      "name": "mintLimit",
      "outputs": [
        {
          "internalType": "uint256",
          "name": "",
          "type": "uint256"
        }
      ],
      "stateMutability": "view",
      "type": "function"
    },
    {
      "inputs": [],
      "name": "mintPrice",
      "outputs": [
        {
          "internalType": "uint256",
          "name": "",
          "type": "uint256"
        }
      ],
      "stateMutability": "view",
      "type": "function"
    },
    {
      "inputs": [],
      "name": "name",
      "outputs": [
        {
          "internalType": "string",
          "name": "",
          "type": "string"
        }
      ],
      "stateMutability": "view",
      "type": "function"
    },
    {
      "inputs": [],
      "name": "owner",
      "outputs": [
        {
          "internalType": "address",
          "name": "",
          "type": "address"
        }
      ],
      "stateMutability": "view",
      "type": "function"
    },
    {
      "inputs": [
        {
          "internalType": "uint256",
          "name": "tokenId",
          "type": "uint256"
        }
      ],
      "name": "ownerOf",
      "outputs": [
        {
          "internalType": "address",
          "name": "",
          "type": "address"
        }
      ],
      "stateMutability": "view",
      "type": "function"
    },
    {
      "inputs": [
        {
          "internalType": "uint256",
          "name": "requestId",
          "type": "uint256"
        },
        {
          "internalType": "uint256[]",
          "name": "randomWords",
          "type": "uint256[]"
        }
      ],
      "name": "rawFulfillRandomWords",
      "outputs": [],
      "stateMutability": "nonpayable",
      "type": "function"
    },
    {
      "inputs": [],
      "name": "renounceOwnership",
      "outputs": [],
      "stateMutability": "nonpayable",
      "type": "function"
    },
    {
      "inputs": [],
      "name": "requestConfirmations",
      "outputs": [
        {
          "internalType": "uint16",
          "name": "",
          "type": "uint16"
        }
      ],
      "stateMutability": "view",
      "type": "function"
    },
    {
      "inputs": [
        {
          "internalType": "uint256",
          "name": "",
          "type": "uint256"
        },
        {
          "internalType": "uint256",
          "name": "",
          "type": "uint256"
        }
      ],
      "name": "requestIdToMintInfos",
      "outputs": [
        {
          "internalType": "address",
          "name": "to",
          "type": "address"
        },
        {
          "internalType": "uint256",
          "name": "tokenId",
          "type": "uint256"
        }
      ],
      "stateMutability": "view",
      "type": "function"
    },
    {
      "inputs": [
        {
          "internalType": "address",
          "name": "to",
          "type": "address"
        },
        {
          "internalType": "uint32",
          "name": "amount",
          "type": "uint32"
        }
      ],
      "name": "requestRandomWords",
      "outputs": [],
      "stateMutability": "payable",
      "type": "function"
    },
    {
      "inputs": [],
      "name": "s_subscriptionId",
      "outputs": [
        {
          "internalType": "uint64",
          "name": "",
          "type": "uint64"
        }
      ],
      "stateMutability": "view",
      "type": "function"
    },
    {
      "inputs": [
        {
          "internalType": "address",
          "name": "from",
          "type": "address"
        },
        {
          "internalType": "address",
          "name": "to",
          "type": "address"
        },
        {
          "internalType": "uint256",
          "name": "tokenId",
          "type": "uint256"
        }
      ],
      "name": "safeTransferFrom",
      "outputs": [],
      "stateMutability": "nonpayable",
      "type": "function"
    },
    {
      "inputs": [
        {
          "internalType": "address",
          "name": "from",
          "type": "address"
        },
        {
          "internalType": "address",
          "name": "to",
          "type": "address"
        },
        {
          "internalType": "uint256",
          "name": "tokenId",
          "type": "uint256"
        },
        {
          "internalType": "bytes",
          "name": "data",
          "type": "bytes"
        }
      ],
      "name": "safeTransferFrom",
      "outputs": [],
      "stateMutability": "nonpayable",
      "type": "function"
    },
    {
      "inputs": [
        {
          "internalType": "address",
          "name": "operator",
          "type": "address"
        },
        {
          "internalType": "bool",
          "name": "approved",
          "type": "bool"
        }
      ],
      "name": "setApprovalForAll",
      "outputs": [],
      "stateMutability": "nonpayable",
      "type": "function"
    },
    {
      "inputs": [
        {
          "internalType": "string",
          "name": "baseTokenURI",
          "type": "string"
        }
      ],
      "name": "setBaseTokenURI",
      "outputs": [],
      "stateMutability": "payable",
      "type": "function"
    },
    {
      "inputs": [
        {
          "internalType": "bytes4",
          "name": "interfaceId",
          "type": "bytes4"
        }
      ],
      "name": "supportsInterface",
      "outputs": [
        {
          "internalType": "bool",
          "name": "",
          "type": "bool"
        }
      ],
      "stateMutability": "view",
      "type": "function"
    },
    {
      "inputs": [],
      "name": "symbol",
      "outputs": [
        {
          "internalType": "string",
          "name": "",
          "type": "string"
        }
      ],
      "stateMutability": "view",
      "type": "function"
    },
    {
      "inputs": [
        {
          "internalType": "uint256",
          "name": "index",
          "type": "uint256"
        }
      ],
      "name": "tokenByIndex",
      "outputs": [
        {
          "internalType": "uint256",
          "name": "",
          "type": "uint256"
        }
      ],
      "stateMutability": "view",
      "type": "function"
    },
    {
      "inputs": [
        {
          "internalType": "uint256",
          "name": "",
          "type": "uint256"
        }
      ],
      "name": "tokenIdToRandomNumber",
      "outputs": [
        {
          "internalType": "uint256",
          "name": "",
          "type": "uint256"
        }
      ],
      "stateMutability": "view",
      "type": "function"
    },
    {
      "inputs": [
        {
          "internalType": "address",
          "name": "owner",
          "type": "address"
        },
        {
          "internalType": "uint256",
          "name": "index",
          "type": "uint256"
        }
      ],
      "name": "tokenOfOwnerByIndex",
      "outputs": [
        {
          "internalType": "uint256",
          "name": "",
          "type": "uint256"
        }
      ],
      "stateMutability": "view",
      "type": "function"
    },
    {
      "inputs": [
        {
          "internalType": "uint256",
          "name": "tokenId",
          "type": "uint256"
        }
      ],
      "name": "tokenURI",
      "outputs": [
        {
          "internalType": "string",
          "name": "",
          "type": "string"
        }
      ],
      "stateMutability": "view",
      "type": "function"
    },
    {
      "inputs": [],
      "name": "totalSupply",
      "outputs": [
        {
          "internalType": "uint256",
          "name": "",
          "type": "uint256"
        }
      ],
      "stateMutability": "view",
      "type": "function"
    },
    {
      "inputs": [
        {
          "internalType": "address",
          "name": "from",
          "type": "address"
        },
        {
          "internalType": "address",
          "name": "to",
          "type": "address"
        },
        {
          "internalType": "uint256",
          "name": "tokenId",
          "type": "uint256"
        }
      ],
      "name": "transferFrom",
      "outputs": [],
      "stateMutability": "nonpayable",
      "type": "function"
    },
    {
      "inputs": [
        {
          "internalType": "address",
          "name": "newOwner",
          "type": "address"
        }
      ],
      "name": "transferOwnership",
      "outputs": [],
      "stateMutability": "nonpayable",
      "type": "function"
    },
    {
      "inputs": [
        {
          "internalType": "address",
          "name": "_recepient",
          "type": "address"
        }
      ],
      "name": "withdraw",
      "outputs": [],
      "stateMutability": "payable",
      "type": "function"
    }
  ],
  "bytecode": "0x60a06040523480156200001157600080fd5b5060405162004e4238038062004e428339818101604052810190620000379190620006b4565b84848b6200005a6200004e6200019360201b60201c565b6200019b60201b60201c565b8073ffffffffffffffffffffffffffffffffffffffff1660808173ffffffffffffffffffffffffffffffffffffffff1681525050508160019081620000a0919062000a48565b508060029081620000b2919062000a48565b50505089600d60006101000a81548173ffffffffffffffffffffffffffffffffffffffff021916908373ffffffffffffffffffffffffffffffffffffffff16021790555088600d60146101000a81548167ffffffffffffffff021916908367ffffffffffffffff16021790555087600e8190555086600f60006101000a81548163ffffffff021916908363ffffffff16021790555085600f60046101000a81548161ffff021916908361ffff160217905550816010819055508060118190555062000183836200025f60201b60201c565b5050505050505050505062000c17565b600033905090565b60008060009054906101000a900473ffffffffffffffffffffffffffffffffffffffff169050816000806101000a81548173ffffffffffffffffffffffffffffffffffffffff021916908373ffffffffffffffffffffffffffffffffffffffff1602179055508173ffffffffffffffffffffffffffffffffffffffff168173ffffffffffffffffffffffffffffffffffffffff167f8be0079c531659141344cd1fd0a4f28419497f9722a3daafe3b4186f6b6457e060405160405180910390a35050565b6200026f620002bd60201b60201c565b806012908162000280919062000a48565b507f2e9b34e5ec7377754a85ec13c1e9a442a00db0c46dbdefbb143dd0371fd20c1c81604051620002b2919062000b81565b60405180910390a150565b620002cd6200019360201b60201c565b73ffffffffffffffffffffffffffffffffffffffff16620002f36200034e60201b60201c565b73ffffffffffffffffffffffffffffffffffffffff16146200034c576040517f08c379a0000000000000000000000000000000000000000000000000000000008152600401620003439062000bf5565b60405180910390fd5b565b60008060009054906101000a900473ffffffffffffffffffffffffffffffffffffffff16905090565b6000604051905090565b600080fd5b600080fd5b600073ffffffffffffffffffffffffffffffffffffffff82169050919050565b6000620003b8826200038b565b9050919050565b620003ca81620003ab565b8114620003d657600080fd5b50565b600081519050620003ea81620003bf565b92915050565b600067ffffffffffffffff82169050919050565b6200040f81620003f0565b81146200041b57600080fd5b50565b6000815190506200042f8162000404565b92915050565b6000819050919050565b6200044a8162000435565b81146200045657600080fd5b50565b6000815190506200046a816200043f565b92915050565b600063ffffffff82169050919050565b6200048b8162000470565b81146200049757600080fd5b50565b600081519050620004ab8162000480565b92915050565b600061ffff82169050919050565b620004ca81620004b1565b8114620004d657600080fd5b50565b600081519050620004ea81620004bf565b92915050565b600080fd5b600080fd5b6000601f19601f8301169050919050565b7f4e487b7100000000000000000000000000000000000000000000000000000000600052604160045260246000fd5b6200054582620004fa565b810181811067ffffffffffffffff821117156200056757620005666200050b565b5b80604052505050565b60006200057c62000377565b90506200058a82826200053a565b919050565b600067ffffffffffffffff821115620005ad57620005ac6200050b565b5b620005b882620004fa565b9050602081019050919050565b60005b83811015620005e5578082015181840152602081019050620005c8565b83811115620005f5576000848401525b50505050565b6000620006126200060c846200058f565b62000570565b905082815260208101848484011115620006315762000630620004f5565b5b6200063e848285620005c5565b509392505050565b600082601f8301126200065e576200065d620004f0565b5b815162000670848260208601620005fb565b91505092915050565b6000819050919050565b6200068e8162000679565b81146200069a57600080fd5b50565b600081519050620006ae8162000683565b92915050565b6000806000806000806000806000806101408b8d031215620006db57620006da62000381565b5b6000620006eb8d828e01620003d9565b9a50506020620006fe8d828e016200041e565b9950506040620007118d828e0162000459565b9850506060620007248d828e016200049a565b9750506080620007378d828e01620004d9565b96505060a08b015167ffffffffffffffff8111156200075b576200075a62000386565b5b620007698d828e0162000646565b95505060c08b015167ffffffffffffffff8111156200078d576200078c62000386565b5b6200079b8d828e0162000646565b94505060e08b015167ffffffffffffffff811115620007bf57620007be62000386565b5b620007cd8d828e0162000646565b935050610100620007e18d828e016200069d565b925050610120620007f58d828e016200069d565b9150509295989b9194979a5092959850565b600081519050919050565b7f4e487b7100000000000000000000000000000000000000000000000000000000600052602260045260246000fd5b600060028204905060018216806200085a57607f821691505b60208210810362000870576200086f62000812565b5b50919050565b60008190508160005260206000209050919050565b60006020601f8301049050919050565b600082821b905092915050565b600060088302620008da7fffffffffffffffffffffffffffffffffffffffffffffffffffffffffffffffff826200089b565b620008e686836200089b565b95508019841693508086168417925050509392505050565b6000819050919050565b600062000929620009236200091d8462000679565b620008fe565b62000679565b9050919050565b6000819050919050565b620009458362000908565b6200095d620009548262000930565b848454620008a8565b825550505050565b600090565b6200097462000965565b620009818184846200093a565b505050565b5b81811015620009a9576200099d6000826200096a565b60018101905062000987565b5050565b601f821115620009f857620009c28162000876565b620009cd846200088b565b81016020851015620009dd578190505b620009f5620009ec856200088b565b83018262000986565b50505b505050565b600082821c905092915050565b600062000a1d60001984600802620009fd565b1980831691505092915050565b600062000a38838362000a0a565b9150826002028217905092915050565b62000a538262000807565b67ffffffffffffffff81111562000a6f5762000a6e6200050b565b5b62000a7b825462000841565b62000a88828285620009ad565b600060209050601f83116001811462000ac0576000841562000aab578287015190505b62000ab7858262000a2a565b86555062000b27565b601f19841662000ad08662000876565b60005b8281101562000afa5784890151825560018201915060208501945060208101905062000ad3565b8683101562000b1a578489015162000b16601f89168262000a0a565b8355505b6001600288020188555050505b505050505050565b600082825260208201905092915050565b600062000b4d8262000807565b62000b59818562000b2f565b935062000b6b818560208601620005c5565b62000b7681620004fa565b840191505092915050565b6000602082019050818103600083015262000b9d818462000b40565b905092915050565b7f4f776e61626c653a2063616c6c6572206973206e6f7420746865206f776e6572600082015250565b600062000bdd60208362000b2f565b915062000bea8262000ba5565b602082019050919050565b6000602082019050818103600083015262000c108162000bce565b9050919050565b60805161420862000c3a60003960008181610a260152610a7a01526142086000f3fe6080604052600436106101e35760003560e01c80636817c76c11610102578063a22cb46511610095578063c87b56dd11610064578063c87b56dd146106ef578063df97f69c1461072c578063e985e9c514610748578063f2fde38b14610785576101e3565b8063a22cb46514610634578063b0fb162f1461065d578063b88d4fde14610688578063beb52e03146106b1576101e3565b80638da5cb5b116100d15780638da5cb5b1461057657806395d89b41146105a1578063996517cf146105cc5780639c1cd795146105f7576101e3565b80636817c76c146104cc57806370a08231146104f7578063715018a6146105345780638ac000211461054b576101e3565b80632f745c591161017a5780634f6ccce7116101495780634f6ccce71461040b57806351cff8d91461044857806361728f39146104645780636352211e1461048f576101e3565b80632f745c591461035e57806330176e131461039b5780633b2bcbf1146103b757806342842e0e146103e2576101e3565b806318160ddd116101b657806318160ddd146102b65780631fe543e3146102e157806323b872dd1461030a57806324f7469714610333576101e3565b806301ffc9a7146101e857806306fdde0314610225578063081812fc14610250578063095ea7b31461028d575b600080fd5b3480156101f457600080fd5b5061020f600480360381019061020a9190612939565b6107ae565b60405161021c9190612981565b60405180910390f35b34801561023157600080fd5b5061023a610828565b6040516102479190612a35565b60405180910390f35b34801561025c57600080fd5b5061027760048036038101906102729190612a8d565b6108ba565b6040516102849190612afb565b60405180910390f35b34801561029957600080fd5b506102b460048036038101906102af9190612b42565b610900565b005b3480156102c257600080fd5b506102cb610a17565b6040516102d89190612b91565b60405180910390f35b3480156102ed57600080fd5b5061030860048036038101906103039190612cf4565b610a24565b005b34801561031657600080fd5b50610331600480360381019061032c9190612d50565b610ae4565b005b34801561033f57600080fd5b50610348610b44565b6040516103559190612dc2565b60405180910390f35b34801561036a57600080fd5b5061038560048036038101906103809190612b42565b610b5a565b6040516103929190612b91565b60405180910390f35b6103b560048036038101906103b09190612e92565b610bff565b005b3480156103c357600080fd5b506103cc610c51565b6040516103d99190612f3a565b60405180910390f35b3480156103ee57600080fd5b5061040960048036038101906104049190612d50565b610c77565b005b34801561041757600080fd5b50610432600480360381019061042d9190612a8d565b610c97565b60405161043f9190612b91565b60405180910390f35b610462600480360381019061045d9190612f55565b610d08565b005b34801561047057600080fd5b50610479610d5a565b6040516104869190612f9b565b60405180910390f35b34801561049b57600080fd5b506104b660048036038101906104b19190612a8d565b610d60565b6040516104c39190612afb565b60405180910390f35b3480156104d857600080fd5b506104e1610e11565b6040516104ee9190612b91565b60405180910390f35b34801561050357600080fd5b5061051e60048036038101906105199190612f55565b610e17565b60405161052b9190612b91565b60405180910390f35b34801561054057600080fd5b50610549610ece565b005b34801561055757600080fd5b50610560610ee2565b60405161056d9190612fd9565b60405180910390f35b34801561058257600080fd5b5061058b610efc565b6040516105989190612afb565b60405180910390f35b3480156105ad57600080fd5b506105b6610f25565b6040516105c39190612a35565b60405180910390f35b3480156105d857600080fd5b506105e1610fb7565b6040516105ee9190612b91565b60405180910390f35b34801561060357600080fd5b5061061e60048036038101906106199190612a8d565b610fbd565b60405161062b9190612b91565b60405180910390f35b34801561064057600080fd5b5061065b60048036038101906106569190613020565b610fd5565b005b34801561066957600080fd5b50610672610feb565b60405161067f919061307d565b60405180910390f35b34801561069457600080fd5b506106af60048036038101906106aa9190613139565b610fff565b005b3480156106bd57600080fd5b506106d860048036038101906106d391906131bc565b611061565b6040516106e69291906131fc565b60405180910390f35b3480156106fb57600080fd5b5061071660048036038101906107119190612a8d565b6110c2565b6040516107239190612a35565b60405180910390f35b61074660048036038101906107419190613251565b61112a565b005b34801561075457600080fd5b5061076f600480360381019061076a9190613291565b6113a6565b60405161077c9190612981565b60405180910390f35b34801561079157600080fd5b506107ac60048036038101906107a79190612f55565b61143a565b005b60007f780e9d63000000000000000000000000000000000000000000000000000000007bffffffffffffffffffffffffffffffffffffffffffffffffffffffff1916827bffffffffffffffffffffffffffffffffffffffffffffffffffffffff191614806108215750610820826114bd565b5b9050919050565b60606001805461083790613300565b80601f016020809104026020016040519081016040528092919081815260200182805461086390613300565b80156108b05780601f10610885576101008083540402835291602001916108b0565b820191906000526020600020905b81548152906001019060200180831161089357829003601f168201915b5050505050905090565b60006108c58261159f565b6005600083815260200190815260200160002060009054906101000a900473ffffffffffffffffffffffffffffffffffffffff169050919050565b600061090b82610d60565b90508073ffffffffffffffffffffffffffffffffffffffff168373ffffffffffffffffffffffffffffffffffffffff160361097b576040517f08c379a0000000000000000000000000000000000000000000000000000000008152600401610972906133a3565b60405180910390fd5b8073ffffffffffffffffffffffffffffffffffffffff1661099a6115ea565b73ffffffffffffffffffffffffffffffffffffffff1614806109c957506109c8816109c36115ea565b6113a6565b5b610a08576040517f08c379a00000000000000000000000000000000000000000000000000000000081526004016109ff90613435565b60405180910390fd5b610a1283836115f2565b505050565b6000600980549050905090565b7f000000000000000000000000000000000000000000000000000000000000000073ffffffffffffffffffffffffffffffffffffffff163373ffffffffffffffffffffffffffffffffffffffff1614610ad657337f00000000000000000000000000000000000000000000000000000000000000006040517f1cf993f4000000000000000000000000000000000000000000000000000000008152600401610acd929190613455565b60405180910390fd5b610ae082826116ab565b5050565b610af5610aef6115ea565b8261185b565b610b34576040517f08c379a0000000000000000000000000000000000000000000000000000000008152600401610b2b906134f0565b60405180910390fd5b610b3f8383836118f0565b505050565b600f60009054906101000a900463ffffffff1681565b6000610b6583610e17565b8210610ba6576040517f08c379a0000000000000000000000000000000000000000000000000000000008152600401610b9d90613582565b60405180910390fd5b600760008473ffffffffffffffffffffffffffffffffffffffff1673ffffffffffffffffffffffffffffffffffffffff168152602001908152602001600020600083815260200190815260200160002054905092915050565b610c07611b56565b8060129081610c169190613744565b507f2e9b34e5ec7377754a85ec13c1e9a442a00db0c46dbdefbb143dd0371fd20c1c81604051610c469190612a35565b60405180910390a150565b600d60009054906101000a900473ffffffffffffffffffffffffffffffffffffffff1681565b610c9283838360405180602001604052806000815250610fff565b505050565b6000610ca1610a17565b8210610ce2576040517f08c379a0000000000000000000000000000000000000000000000000000000008152600401610cd990613888565b60405180910390fd5b60098281548110610cf657610cf56138a8565b5b90600052602060002001549050919050565b610d10611b56565b8073ffffffffffffffffffffffffffffffffffffffff166108fc479081150290604051600060405180830381858888f19350505050158015610d56573d6000803e3d6000fd5b5050565b600e5481565b6000806003600084815260200190815260200160002060009054906101000a900473ffffffffffffffffffffffffffffffffffffffff169050600073ffffffffffffffffffffffffffffffffffffffff168173ffffffffffffffffffffffffffffffffffffffff1603610e08576040517f08c379a0000000000000000000000000000000000000000000000000000000008152600401610dff90613923565b60405180910390fd5b80915050919050565b60115481565b60008073ffffffffffffffffffffffffffffffffffffffff168273ffffffffffffffffffffffffffffffffffffffff1603610e87576040517f08c379a0000000000000000000000000000000000000000000000000000000008152600401610e7e906139b5565b60405180910390fd5b600460008373ffffffffffffffffffffffffffffffffffffffff1673ffffffffffffffffffffffffffffffffffffffff168152602001908152602001600020549050919050565b610ed6611b56565b610ee06000611bd4565b565b600d60149054906101000a900467ffffffffffffffff1681565b60008060009054906101000a900473ffffffffffffffffffffffffffffffffffffffff16905090565b606060028054610f3490613300565b80601f0160208091040260200160405190810160405280929190818152602001828054610f6090613300565b8015610fad5780601f10610f8257610100808354040283529160200191610fad565b820191906000526020600020905b815481529060010190602001808311610f9057829003601f168201915b5050505050905090565b60105481565b600c6020528060005260406000206000915090505481565b610fe7610fe06115ea565b8383611c98565b5050565b600f60049054906101000a900461ffff1681565b61101061100a6115ea565b8361185b565b61104f576040517f08c379a0000000000000000000000000000000000000000000000000000000008152600401611046906134f0565b60405180910390fd5b61105b84848484611e04565b50505050565b600b602052816000526040600020818154811061107d57600080fd5b9060005260206000209060020201600091509150508060000160009054906101000a900473ffffffffffffffffffffffffffffffffffffffff16908060010154905082565b60606110cd8261159f565b60006110d7611e60565b905060008151116110f75760405180602001604052806000815250611122565b8061110184611ef2565b604051602001611112929190613a11565b6040516020818303038152906040525b915050919050565b6010548163ffffffff1661113c610a17565b6111469190613a64565b1115611187576040517f08c379a000000000000000000000000000000000000000000000000000000000815260040161117e90613b06565b60405180910390fd5b6000600d60009054906101000a900473ffffffffffffffffffffffffffffffffffffffff1673ffffffffffffffffffffffffffffffffffffffff16635d3b1d30600e54600d60149054906101000a900467ffffffffffffffff16600f60049054906101000a900461ffff16600f60009054906101000a900463ffffffff16876040518663ffffffff1660e01b8152600401611226959493929190613b26565b6020604051808303816000875af1158015611245573d6000803e3d6000fd5b505050506040513d601f19601f820116820180604052508101906112699190613b8e565b905060005b8263ffffffff168110156113a0576000600182611289610a17565b6112939190613a64565b61129d9190613a64565b9050600060405180604001604052808773ffffffffffffffffffffffffffffffffffffffff168152602001838152509050600b600085815260200190815260200160002081908060018154018082558091505060019003906000526020600020906002020160009091909190915060008201518160000160006101000a81548173ffffffffffffffffffffffffffffffffffffffff021916908373ffffffffffffffffffffffffffffffffffffffff160217905550602082015181600101555050817f54593fbf3d0e13af724316e44a7387ee756ab753993496c7009658e83217002c60405160405180910390a25050808061139890613bbb565b91505061126e565b50505050565b6000600660008473ffffffffffffffffffffffffffffffffffffffff1673ffffffffffffffffffffffffffffffffffffffff16815260200190815260200160002060008373ffffffffffffffffffffffffffffffffffffffff1673ffffffffffffffffffffffffffffffffffffffff16815260200190815260200160002060009054906101000a900460ff16905092915050565b611442611b56565b600073ffffffffffffffffffffffffffffffffffffffff168173ffffffffffffffffffffffffffffffffffffffff16036114b1576040517f08c379a00000000000000000000000000000000000000000000000000000000081526004016114a890613c75565b60405180910390fd5b6114ba81611bd4565b50565b60007f80ac58cd000000000000000000000000000000000000000000000000000000007bffffffffffffffffffffffffffffffffffffffffffffffffffffffff1916827bffffffffffffffffffffffffffffffffffffffffffffffffffffffff1916148061158857507f5b5e139f000000000000000000000000000000000000000000000000000000007bffffffffffffffffffffffffffffffffffffffffffffffffffffffff1916827bffffffffffffffffffffffffffffffffffffffffffffffffffffffff1916145b80611598575061159782612052565b5b9050919050565b6115a8816120bc565b6115e7576040517f08c379a00000000000000000000000000000000000000000000000000000000081526004016115de90613923565b60405180910390fd5b50565b600033905090565b816005600083815260200190815260200160002060006101000a81548173ffffffffffffffffffffffffffffffffffffffff021916908373ffffffffffffffffffffffffffffffffffffffff160217905550808273ffffffffffffffffffffffffffffffffffffffff1661166583610d60565b73ffffffffffffffffffffffffffffffffffffffff167f8c5be1e5ebec7d5bd14f71427d1e84f3dd0314c0f7b2291e5b200ac8c7c3b92560405160405180910390a45050565b6000600b6000848152602001908152602001600020805480602002602001604051908101604052809291908181526020016000905b8282101561177257838290600052602060002090600202016040518060400160405290816000820160009054906101000a900473ffffffffffffffffffffffffffffffffffffffff1673ffffffffffffffffffffffffffffffffffffffff1673ffffffffffffffffffffffffffffffffffffffff168152602001600182015481525050815260200190600101906116e0565b50505050905060005b8151811015611855576000828281518110611799576117986138a8565b5b602002602001015190506117b581600001518260200151612128565b8382815181106117c8576117c76138a8565b5b6020026020010151600c6000836020015181526020019081526020016000208190555080602001517f8a9dcf4e150b1153011b29fec302d5be0c13e84fa8f56ab78587f778a32a90dd858481518110611824576118236138a8565b5b60200260200101516040516118399190612b91565b60405180910390a250808061184d90613bbb565b91505061177b565b50505050565b60008061186783610d60565b90508073ffffffffffffffffffffffffffffffffffffffff168473ffffffffffffffffffffffffffffffffffffffff1614806118a957506118a881856113a6565b5b806118e757508373ffffffffffffffffffffffffffffffffffffffff166118cf846108ba565b73ffffffffffffffffffffffffffffffffffffffff16145b91505092915050565b8273ffffffffffffffffffffffffffffffffffffffff1661191082610d60565b73ffffffffffffffffffffffffffffffffffffffff1614611966576040517f08c379a000000000000000000000000000000000000000000000000000000000815260040161195d90613d07565b60405180910390fd5b600073ffffffffffffffffffffffffffffffffffffffff168273ffffffffffffffffffffffffffffffffffffffff16036119d5576040517f08c379a00000000000000000000000000000000000000000000000000000000081526004016119cc90613d99565b60405180910390fd5b6119e0838383612301565b6119eb6000826115f2565b6001600460008573ffffffffffffffffffffffffffffffffffffffff1673ffffffffffffffffffffffffffffffffffffffff1681526020019081526020016000206000828254611a3b9190613db9565b925050819055506001600460008473ffffffffffffffffffffffffffffffffffffffff1673ffffffffffffffffffffffffffffffffffffffff1681526020019081526020016000206000828254611a929190613a64565b92505081905550816003600083815260200190815260200160002060006101000a81548173ffffffffffffffffffffffffffffffffffffffff021916908373ffffffffffffffffffffffffffffffffffffffff160217905550808273ffffffffffffffffffffffffffffffffffffffff168473ffffffffffffffffffffffffffffffffffffffff167fddf252ad1be2c89b69c2b068fc378daa952ba7f163c4a11628f55a4df523b3ef60405160405180910390a4611b51838383612413565b505050565b611b5e6115ea565b73ffffffffffffffffffffffffffffffffffffffff16611b7c610efc565b73ffffffffffffffffffffffffffffffffffffffff1614611bd2576040517f08c379a0000000000000000000000000000000000000000000000000000000008152600401611bc990613e39565b60405180910390fd5b565b60008060009054906101000a900473ffffffffffffffffffffffffffffffffffffffff169050816000806101000a81548173ffffffffffffffffffffffffffffffffffffffff021916908373ffffffffffffffffffffffffffffffffffffffff1602179055508173ffffffffffffffffffffffffffffffffffffffff168173ffffffffffffffffffffffffffffffffffffffff167f8be0079c531659141344cd1fd0a4f28419497f9722a3daafe3b4186f6b6457e060405160405180910390a35050565b8173ffffffffffffffffffffffffffffffffffffffff168373ffffffffffffffffffffffffffffffffffffffff1603611d06576040517f08c379a0000000000000000000000000000000000000000000000000000000008152600401611cfd90613ea5565b60405180910390fd5b80600660008573ffffffffffffffffffffffffffffffffffffffff1673ffffffffffffffffffffffffffffffffffffffff16815260200190815260200160002060008473ffffffffffffffffffffffffffffffffffffffff1673ffffffffffffffffffffffffffffffffffffffff16815260200190815260200160002060006101000a81548160ff0219169083151502179055508173ffffffffffffffffffffffffffffffffffffffff168373ffffffffffffffffffffffffffffffffffffffff167f17307eab39ab6107e8899845ad3d59bd9653f200f220920489ca2b5937696c3183604051611df79190612981565b60405180910390a3505050565b611e0f8484846118f0565b611e1b84848484612418565b611e5a576040517f08c379a0000000000000000000000000000000000000000000000000000000008152600401611e5190613f37565b60405180910390fd5b50505050565b606060128054611e6f90613300565b80601f0160208091040260200160405190810160405280929190818152602001828054611e9b90613300565b8015611ee85780601f10611ebd57610100808354040283529160200191611ee8565b820191906000526020600020905b815481529060010190602001808311611ecb57829003601f168201915b5050505050905090565b606060008203611f39576040518060400160405280600181526020017f3000000000000000000000000000000000000000000000000000000000000000815250905061204d565b600082905060005b60008214611f6b578080611f5490613bbb565b915050600a82611f649190613f86565b9150611f41565b60008167ffffffffffffffff811115611f8757611f86612bb1565b5b6040519080825280601f01601f191660200182016040528015611fb95781602001600182028036833780820191505090505b5090505b6000851461204657600182611fd29190613db9565b9150600a85611fe19190613fb7565b6030611fed9190613a64565b60f81b818381518110612003576120026138a8565b5b60200101907effffffffffffffffffffffffffffffffffffffffffffffffffffffffffffff1916908160001a905350600a8561203f9190613f86565b9450611fbd565b8093505050505b919050565b60007f01ffc9a7000000000000000000000000000000000000000000000000000000007bffffffffffffffffffffffffffffffffffffffffffffffffffffffff1916827bffffffffffffffffffffffffffffffffffffffffffffffffffffffff1916149050919050565b60008073ffffffffffffffffffffffffffffffffffffffff166003600084815260200190815260200160002060009054906101000a900473ffffffffffffffffffffffffffffffffffffffff1673ffffffffffffffffffffffffffffffffffffffff1614159050919050565b600073ffffffffffffffffffffffffffffffffffffffff168273ffffffffffffffffffffffffffffffffffffffff1603612197576040517f08c379a000000000000000000000000000000000000000000000000000000000815260040161218e90614034565b60405180910390fd5b6121a0816120bc565b156121e0576040517f08c379a00000000000000000000000000000000000000000000000000000000081526004016121d7906140a0565b60405180910390fd5b6121ec60008383612301565b6001600460008473ffffffffffffffffffffffffffffffffffffffff1673ffffffffffffffffffffffffffffffffffffffff168152602001908152602001600020600082825461223c9190613a64565b92505081905550816003600083815260200190815260200160002060006101000a81548173ffffffffffffffffffffffffffffffffffffffff021916908373ffffffffffffffffffffffffffffffffffffffff160217905550808273ffffffffffffffffffffffffffffffffffffffff16600073ffffffffffffffffffffffffffffffffffffffff167fddf252ad1be2c89b69c2b068fc378daa952ba7f163c4a11628f55a4df523b3ef60405160405180910390a46122fd60008383612413565b5050565b61230c83838361259f565b600073ffffffffffffffffffffffffffffffffffffffff168373ffffffffffffffffffffffffffffffffffffffff160361234e57612349816125a4565b61238d565b8173ffffffffffffffffffffffffffffffffffffffff168373ffffffffffffffffffffffffffffffffffffffff161461238c5761238b83826125ed565b5b5b600073ffffffffffffffffffffffffffffffffffffffff168273ffffffffffffffffffffffffffffffffffffffff16036123cf576123ca8161275a565b61240e565b8273ffffffffffffffffffffffffffffffffffffffff168273ffffffffffffffffffffffffffffffffffffffff161461240d5761240c828261282b565b5b5b505050565b505050565b60006124398473ffffffffffffffffffffffffffffffffffffffff166128aa565b15612592578373ffffffffffffffffffffffffffffffffffffffff1663150b7a026124626115ea565b8786866040518563ffffffff1660e01b81526004016124849493929190614115565b6020604051808303816000875af19250505080156124c057506040513d601f19601f820116820180604052508101906124bd9190614176565b60015b612542573d80600081146124f0576040519150601f19603f3d011682016040523d82523d6000602084013e6124f5565b606091505b50600081510361253a576040517f08c379a000000000000000000000000000000000000000000000000000000000815260040161253190613f37565b60405180910390fd5b805181602001fd5b63150b7a0260e01b7bffffffffffffffffffffffffffffffffffffffffffffffffffffffff1916817bffffffffffffffffffffffffffffffffffffffffffffffffffffffff191614915050612597565b600190505b949350505050565b505050565b600980549050600a600083815260200190815260200160002081905550600981908060018154018082558091505060019003906000526020600020016000909190919091505550565b600060016125fa84610e17565b6126049190613db9565b90506000600860008481526020019081526020016000205490508181146126e9576000600760008673ffffffffffffffffffffffffffffffffffffffff1673ffffffffffffffffffffffffffffffffffffffff168152602001908152602001600020600084815260200190815260200160002054905080600760008773ffffffffffffffffffffffffffffffffffffffff1673ffffffffffffffffffffffffffffffffffffffff168152602001908152602001600020600084815260200190815260200160002081905550816008600083815260200190815260200160002081905550505b6008600084815260200190815260200160002060009055600760008573ffffffffffffffffffffffffffffffffffffffff1673ffffffffffffffffffffffffffffffffffffffff16815260200190815260200160002060008381526020019081526020016000206000905550505050565b6000600160098054905061276e9190613db9565b90506000600a600084815260200190815260200160002054905060006009838154811061279e5761279d6138a8565b5b9060005260206000200154905080600983815481106127c0576127bf6138a8565b5b906000526020600020018190555081600a600083815260200190815260200160002081905550600a600085815260200190815260200160002060009055600980548061280f5761280e6141a3565b5b6001900381819060005260206000200160009055905550505050565b600061283683610e17565b905081600760008573ffffffffffffffffffffffffffffffffffffffff1673ffffffffffffffffffffffffffffffffffffffff168152602001908152602001600020600083815260200190815260200160002081905550806008600084815260200190815260200160002081905550505050565b6000808273ffffffffffffffffffffffffffffffffffffffff163b119050919050565b6000604051905090565b600080fd5b600080fd5b60007fffffffff0000000000000000000000000000000000000000000000000000000082169050919050565b612916816128e1565b811461292157600080fd5b50565b6000813590506129338161290d565b92915050565b60006020828403121561294f5761294e6128d7565b5b600061295d84828501612924565b91505092915050565b60008115159050919050565b61297b81612966565b82525050565b60006020820190506129966000830184612972565b92915050565b600081519050919050565b600082825260208201905092915050565b60005b838110156129d65780820151818401526020810190506129bb565b838111156129e5576000848401525b50505050565b6000601f19601f8301169050919050565b6000612a078261299c565b612a1181856129a7565b9350612a218185602086016129b8565b612a2a816129eb565b840191505092915050565b60006020820190508181036000830152612a4f81846129fc565b905092915050565b6000819050919050565b612a6a81612a57565b8114612a7557600080fd5b50565b600081359050612a8781612a61565b92915050565b600060208284031215612aa357612aa26128d7565b5b6000612ab184828501612a78565b91505092915050565b600073ffffffffffffffffffffffffffffffffffffffff82169050919050565b6000612ae582612aba565b9050919050565b612af581612ada565b82525050565b6000602082019050612b106000830184612aec565b92915050565b612b1f81612ada565b8114612b2a57600080fd5b50565b600081359050612b3c81612b16565b92915050565b60008060408385031215612b5957612b586128d7565b5b6000612b6785828601612b2d565b9250506020612b7885828601612a78565b9150509250929050565b612b8b81612a57565b82525050565b6000602082019050612ba66000830184612b82565b92915050565b600080fd5b7f4e487b7100000000000000000000000000000000000000000000000000000000600052604160045260246000fd5b612be9826129eb565b810181811067ffffffffffffffff82111715612c0857612c07612bb1565b5b80604052505050565b6000612c1b6128cd565b9050612c278282612be0565b919050565b600067ffffffffffffffff821115612c4757612c46612bb1565b5b602082029050602081019050919050565b600080fd5b6000612c70612c6b84612c2c565b612c11565b90508083825260208201905060208402830185811115612c9357612c92612c58565b5b835b81811015612cbc5780612ca88882612a78565b845260208401935050602081019050612c95565b5050509392505050565b600082601f830112612cdb57612cda612bac565b5b8135612ceb848260208601612c5d565b91505092915050565b60008060408385031215612d0b57612d0a6128d7565b5b6000612d1985828601612a78565b925050602083013567ffffffffffffffff811115612d3a57612d396128dc565b5b612d4685828601612cc6565b9150509250929050565b600080600060608486031215612d6957612d686128d7565b5b6000612d7786828701612b2d565b9350506020612d8886828701612b2d565b9250506040612d9986828701612a78565b9150509250925092565b600063ffffffff82169050919050565b612dbc81612da3565b82525050565b6000602082019050612dd76000830184612db3565b92915050565b600080fd5b600067ffffffffffffffff821115612dfd57612dfc612bb1565b5b612e06826129eb565b9050602081019050919050565b82818337600083830152505050565b6000612e35612e3084612de2565b612c11565b905082815260208101848484011115612e5157612e50612ddd565b5b612e5c848285612e13565b509392505050565b600082601f830112612e7957612e78612bac565b5b8135612e89848260208601612e22565b91505092915050565b600060208284031215612ea857612ea76128d7565b5b600082013567ffffffffffffffff811115612ec657612ec56128dc565b5b612ed284828501612e64565b91505092915050565b6000819050919050565b6000612f00612efb612ef684612aba565b612edb565b612aba565b9050919050565b6000612f1282612ee5565b9050919050565b6000612f2482612f07565b9050919050565b612f3481612f19565b82525050565b6000602082019050612f4f6000830184612f2b565b92915050565b600060208284031215612f6b57612f6a6128d7565b5b6000612f7984828501612b2d565b91505092915050565b6000819050919050565b612f9581612f82565b82525050565b6000602082019050612fb06000830184612f8c565b92915050565b600067ffffffffffffffff82169050919050565b612fd381612fb6565b82525050565b6000602082019050612fee6000830184612fca565b92915050565b612ffd81612966565b811461300857600080fd5b50565b60008135905061301a81612ff4565b92915050565b60008060408385031215613037576130366128d7565b5b600061304585828601612b2d565b92505060206130568582860161300b565b9150509250929050565b600061ffff82169050919050565b61307781613060565b82525050565b6000602082019050613092600083018461306e565b92915050565b600067ffffffffffffffff8211156130b3576130b2612bb1565b5b6130bc826129eb565b9050602081019050919050565b60006130dc6130d784613098565b612c11565b9050828152602081018484840111156130f8576130f7612ddd565b5b613103848285612e13565b509392505050565b600082601f8301126131205761311f612bac565b5b81356131308482602086016130c9565b91505092915050565b60008060008060808587031215613153576131526128d7565b5b600061316187828801612b2d565b945050602061317287828801612b2d565b935050604061318387828801612a78565b925050606085013567ffffffffffffffff8111156131a4576131a36128dc565b5b6131b08782880161310b565b91505092959194509250565b600080604083850312156131d3576131d26128d7565b5b60006131e185828601612a78565b92505060206131f285828601612a78565b9150509250929050565b60006040820190506132116000830185612aec565b61321e6020830184612b82565b9392505050565b61322e81612da3565b811461323957600080fd5b50565b60008135905061324b81613225565b92915050565b60008060408385031215613268576132676128d7565b5b600061327685828601612b2d565b92505060206132878582860161323c565b9150509250929050565b600080604083850312156132a8576132a76128d7565b5b60006132b685828601612b2d565b92505060206132c785828601612b2d565b9150509250929050565b7f4e487b7100000000000000000000000000000000000000000000000000000000600052602260045260246000fd5b6000600282049050600182168061331857607f821691505b60208210810361332b5761332a6132d1565b5b50919050565b7f4552433732313a20617070726f76616c20746f2063757272656e74206f776e6560008201527f7200000000000000000000000000000000000000000000000000000000000000602082015250565b600061338d6021836129a7565b915061339882613331565b604082019050919050565b600060208201905081810360008301526133bc81613380565b9050919050565b7f4552433732313a20617070726f76652063616c6c6572206973206e6f7420746f60008201527f6b656e206f776e6572206e6f7220617070726f76656420666f7220616c6c0000602082015250565b600061341f603e836129a7565b915061342a826133c3565b604082019050919050565b6000602082019050818103600083015261344e81613412565b9050919050565b600060408201905061346a6000830185612aec565b6134776020830184612aec565b9392505050565b7f4552433732313a2063616c6c6572206973206e6f7420746f6b656e206f776e6560008201527f72206e6f7220617070726f766564000000000000000000000000000000000000602082015250565b60006134da602e836129a7565b91506134e58261347e565b604082019050919050565b60006020820190508181036000830152613509816134cd565b9050919050565b7f455243373231456e756d657261626c653a206f776e657220696e646578206f7560008201527f74206f6620626f756e6473000000000000000000000000000000000000000000602082015250565b600061356c602b836129a7565b915061357782613510565b604082019050919050565b6000602082019050818103600083015261359b8161355f565b9050919050565b60008190508160005260206000209050919050565b60006020601f8301049050919050565b600082821b905092915050565b6000600883026136047fffffffffffffffffffffffffffffffffffffffffffffffffffffffffffffffff826135c7565b61360e86836135c7565b95508019841693508086168417925050509392505050565b600061364161363c61363784612a57565b612edb565b612a57565b9050919050565b6000819050919050565b61365b83613626565b61366f61366782613648565b8484546135d4565b825550505050565b600090565b613684613677565b61368f818484613652565b505050565b5b818110156136b3576136a860008261367c565b600181019050613695565b5050565b601f8211156136f8576136c9816135a2565b6136d2846135b7565b810160208510156136e1578190505b6136f56136ed856135b7565b830182613694565b50505b505050565b600082821c905092915050565b600061371b600019846008026136fd565b1980831691505092915050565b6000613734838361370a565b9150826002028217905092915050565b61374d8261299c565b67ffffffffffffffff81111561376657613765612bb1565b5b6137708254613300565b61377b8282856136b7565b600060209050601f8311600181146137ae576000841561379c578287015190505b6137a68582613728565b86555061380e565b601f1984166137bc866135a2565b60005b828110156137e4578489015182556001820191506020850194506020810190506137bf565b8683101561380157848901516137fd601f89168261370a565b8355505b6001600288020188555050505b505050505050565b7f455243373231456e756d657261626c653a20676c6f62616c20696e646578206f60008201527f7574206f6620626f756e64730000000000000000000000000000000000000000602082015250565b6000613872602c836129a7565b915061387d82613816565b604082019050919050565b600060208201905081810360008301526138a181613865565b9050919050565b7f4e487b7100000000000000000000000000000000000000000000000000000000600052603260045260246000fd5b7f4552433732313a20696e76616c696420746f6b656e2049440000000000000000600082015250565b600061390d6018836129a7565b9150613918826138d7565b602082019050919050565b6000602082019050818103600083015261393c81613900565b9050919050565b7f4552433732313a2061646472657373207a65726f206973206e6f74206120766160008201527f6c6964206f776e65720000000000000000000000000000000000000000000000602082015250565b600061399f6029836129a7565b91506139aa82613943565b604082019050919050565b600060208201905081810360008301526139ce81613992565b9050919050565b600081905092915050565b60006139eb8261299c565b6139f581856139d5565b9350613a058185602086016129b8565b80840191505092915050565b6000613a1d82856139e0565b9150613a2982846139e0565b91508190509392505050565b7f4e487b7100000000000000000000000000000000000000000000000000000000600052601160045260246000fd5b6000613a6f82612a57565b9150613a7a83612a57565b9250827fffffffffffffffffffffffffffffffffffffffffffffffffffffffffffffffff03821115613aaf57613aae613a35565b5b828201905092915050565b7f4e4654446f6f723a206d696e74206c696d697420657863656564656400000000600082015250565b6000613af0601c836129a7565b9150613afb82613aba565b602082019050919050565b60006020820190508181036000830152613b1f81613ae3565b9050919050565b600060a082019050613b3b6000830188612f8c565b613b486020830187612fca565b613b55604083018661306e565b613b626060830185612db3565b613b6f6080830184612db3565b9695505050505050565b600081519050613b8881612a61565b92915050565b600060208284031215613ba457613ba36128d7565b5b6000613bb284828501613b79565b91505092915050565b6000613bc682612a57565b91507fffffffffffffffffffffffffffffffffffffffffffffffffffffffffffffffff8203613bf857613bf7613a35565b5b600182019050919050565b7f4f776e61626c653a206e6577206f776e657220697320746865207a65726f206160008201527f6464726573730000000000000000000000000000000000000000000000000000602082015250565b6000613c5f6026836129a7565b9150613c6a82613c03565b604082019050919050565b60006020820190508181036000830152613c8e81613c52565b9050919050565b7f4552433732313a207472616e736665722066726f6d20696e636f72726563742060008201527f6f776e6572000000000000000000000000000000000000000000000000000000602082015250565b6000613cf16025836129a7565b9150613cfc82613c95565b604082019050919050565b60006020820190508181036000830152613d2081613ce4565b9050919050565b7f4552433732313a207472616e7366657220746f20746865207a65726f2061646460008201527f7265737300000000000000000000000000000000000000000000000000000000602082015250565b6000613d836024836129a7565b9150613d8e82613d27565b604082019050919050565b60006020820190508181036000830152613db281613d76565b9050919050565b6000613dc482612a57565b9150613dcf83612a57565b925082821015613de257613de1613a35565b5b828203905092915050565b7f4f776e61626c653a2063616c6c6572206973206e6f7420746865206f776e6572600082015250565b6000613e236020836129a7565b9150613e2e82613ded565b602082019050919050565b60006020820190508181036000830152613e5281613e16565b9050919050565b7f4552433732313a20617070726f766520746f2063616c6c657200000000000000600082015250565b6000613e8f6019836129a7565b9150613e9a82613e59565b602082019050919050565b60006020820190508181036000830152613ebe81613e82565b9050919050565b7f4552433732313a207472616e7366657220746f206e6f6e20455243373231526560008201527f63656976657220696d706c656d656e7465720000000000000000000000000000602082015250565b6000613f216032836129a7565b9150613f2c82613ec5565b604082019050919050565b60006020820190508181036000830152613f5081613f14565b9050919050565b7f4e487b7100000000000000000000000000000000000000000000000000000000600052601260045260246000fd5b6000613f9182612a57565b9150613f9c83612a57565b925082613fac57613fab613f57565b5b828204905092915050565b6000613fc282612a57565b9150613fcd83612a57565b925082613fdd57613fdc613f57565b5b828206905092915050565b7f4552433732313a206d696e7420746f20746865207a65726f2061646472657373600082015250565b600061401e6020836129a7565b915061402982613fe8565b602082019050919050565b6000602082019050818103600083015261404d81614011565b9050919050565b7f4552433732313a20746f6b656e20616c7265616479206d696e74656400000000600082015250565b600061408a601c836129a7565b915061409582614054565b602082019050919050565b600060208201905081810360008301526140b98161407d565b9050919050565b600081519050919050565b600082825260208201905092915050565b60006140e7826140c0565b6140f181856140cb565b93506141018185602086016129b8565b61410a816129eb565b840191505092915050565b600060808201905061412a6000830187612aec565b6141376020830186612aec565b6141446040830185612b82565b818103606083015261415681846140dc565b905095945050505050565b6000815190506141708161290d565b92915050565b60006020828403121561418c5761418b6128d7565b5b600061419a84828501614161565b91505092915050565b7f4e487b7100000000000000000000000000000000000000000000000000000000600052603160045260246000fdfea2646970667358221220ec0f1c846f90756020b0bbc9505a2fb159f7a9a0063962502601ddfd521e8b0464736f6c634300080f0033",
  "linkReferences": {},
  "deployedLinkReferences": {}
}